:1000260068656C7000726573657400737600687637
:100036000066736E0073657420736E206F6B0A0022
:10004600736574206F7574707574206F6B0A006920
:100056006F207465737400737461727420746573B1
:10006600740073746F702074657374000A004E41D7
:100076000A00696E7075740073656E73657231205F
:100086007475726E206F6E0A0073656E73657231D9
:10009600207475726E206F66660A0073656E7365EE
:1000A6007232207475726E206F6E0A0073656E73FD
:1000B600657232207475726E206F66660A0073650B
:1000C6006E73657233207475726E206F6E0A0073DC
:1000D600656E73657233207475726E206F66660A7C
:1000E6000073656E73657234207475726E206F6E60
:1000F6000A0073656E73657234207475726E206FB4
:1001060066660A0073656E73657235207475726E65
:10011600206F6E0A0073656E736572352074757292
:100126006E206F66660A0073656E7365723620749C
:1001360075726E206F6E0A0073656E736572362077
:100146007475726E206F66660A0073656E736572EB
:1001560037207475726E206F6E0A0073656E736554
:100166007237207475726E206F66660A0073656E4C
:1001760073657238207475726E206F6E0A0073652F
:100186006E73657238207475726E206F66660A002B
:1001960073656E73657239207475726E206F6E0AA0
:1001A6000073656E73657239207475726E206F66A2
:1001B600660A0073656E7365723130207475726EEF
:1001C600206F6E0A0073656E736572313020747528
:1001D600726E206F66660A0073656E7365723131E2
:1001E600207475726E206F6E0A0073656E73657289
:1001F6003131207475726E206F66660A0073656E03
:100206007365723132207475726E206F6E0A0073D8
:10021600656E7365723132207475726E206F666614
:100226000A0073656E7365723133207475726E20C1
:100236006F6E0A0073656E73657231332074757262
:100246006E206F66660A0073656E736572313420C0
:100256007475726E206F6E0A0073656E7365723107
:1002660034207475726E206F66660A0073656E734D
:1002760065723135207475726E206F6E0A00736573
:100286006E7365723135207475726E206F66660AFC
:100296000073656E7365723136207475726E206FE9
:1002A6006E0A0073656E7365723136207475726EF0
:1002B600206F66660A006F7574707574006C6566EB
:1002C6007420737461747573006C6566742074723F
:1002D6007565400A006C6566742066616C736540DE
:1002E6000A006C6967687420737461747573006CB6
:1002F6006967687420746F756368656420747275C5
:1003060065400A006C6967687420746F7563686578
:10031600642066616C7365400A00726967687420C0
:10032600737461747573007269676874207472758A
:1003360065400A0072696768742066616C7365407F
:100346000A00703020737461747573007030207405
:10035600727565400A0070302066616C7365400AEC
:100366000070342073746174757300703420747275
:100376007565400A0070342066616C7365400A003A
:10038600696E736964652073746174757300696E50
:10039600736964652074727565400A00696E7369D5
:1003A60064652066616C7365400A006F75747369D5
:1003B600646520737461747573006F757473696412
:1003C600652074727565400A006F7574736964659B
:1003D6002066616C7365400A00703220757073691F
:1003E60064652073746174757300703220646F776E
:1003F6006E736964652074727565400A00703220F8
:100406007570736964652074727565400A00703290
:100416002073746174757320756E646566696E65A4
:10042600400A0070332075707369646520737461C7
:1004360074757300703320646F776E73696465201A
:1004460074727565400A007033207570736964654F
:100456002074727565400A00703320737461747578
:100466007320756E646566696E65400A0070322099
:10047600737461747573007032206F70656E400A14
:1004860000703220636C6F7365400A00703220750D
:100496006E646566696E65400A0070332073746128
:1004A60074757300703320636C6F7365400A007057
:1004B60033206F70656E400A00703320756E646578
:1004C60066696E65400A0061697220696E006F6B2D
:1004D6004041495220494E0A00616972206F757485
:1004E600006F6B40414952204F55540A007032202C
:1004F6006F70656E006F6B405032204F50454E0A4C
:1005060000703220636C6F7365006F6B4050322051
:10051600434C4F53450A007033206F70656E006F71
:100526006B405033204F50454E0A00703320636CA9
:100536006F7365006F6B40503320434C4F53450A31
:10054600006920647574006F6B4049204455540A55
:100556000072206561006F6B40522045410A0072AF
:10056600206562006F6B40522045420A0069206593
:1005760062006F6B40492045420A006920656100B0
:100586006F6B40492045410A00706F776572206F96
:100596006E006F6B40504F574552204F4E0A007009
:1005A6006F776572206F6666006F6B40504F5745D8
:1005B60052204F46460A00703220646F6E65006F07
:1005C6006B40503220444F4E450A0068656C702DD2
:1005D6002D2D2D2D2D2D2D2D2D2D2D2D2D2D2D2D45
:1005E6002D2D2D2D2D2D2D2D636F6D6D616E64209E
:1005F6006C69737420616E642064657363726970DC
:1006060074696F6E0A0072657365742D2D2D2D2D1C
:100616002D2D2D2D2D2D2D2D2D2D2D2D2D2D2D2D04
:100626002D2D2D72657365742066697874757265F3
:100636000A0066736E2D2D2D2D2D2D2D2D2D2D2D74
:100646002D2D2D2D2D2D2D2D2D2D2D2D2D2D2D679A
:1006560065742074686520666978747572652053C0
:100666004E206E756D6265720A00736E3A78782D4B
:100676002D2D787878782D2D2D2D2D2D2D2D2D2D78
:100686002D2D2D2D2D2D2D736574207468652066F6
:1006960069787475726520534E206E756D62657249
:1006A6000A0073762D2D2D2D2D2D2D2D2D2D2D2D35
:1006B6002D2D2D2D2D2D2D2D2D2D2D2D2D2D2D672A
:1006C6006574207468652066697874757265207330
:1006D6006F6674776172652076657273696F6E20D6
:1006E6006E756D6265720A0068762D2D2D2D2D2D85
:1006F6002D2D2D2D2D2D2D2D2D2D2D2D2D2D2D2D24
:100706002D2D2D2D2D6765742074686520666978FA
:1007160074757265206861726477617265207665AA
:100726007273696F6E206E756D6265720A00534151
:10073600564520494E464F2058582059595959591F
:100746000A005245414420494E464F2058580A0057
:10075600696E7075742078782D2D2D2D2D2D2D2DEB
:100766002D2D2D2D2D2D2D2D2D2D2D2D2D676574FA
:100776002074686520696E7075742070696E2073C8
:1007860074617475730A006F757470757420787867
:1007960020792D2D2D2D2D2D2D2D2D2D2D2D2D2D44
:1007A6002D2D2D2D73657420746865206F757470FA
:1007B60075742070696E20746F20790A0061697201
:1007C60020696E202D2D2D2D2D2D2D2D2D2D2D2DF0
:1007D6002D2D2D2D2D2D2D2D2D2D63796C696E64CE
:1007E600657220696E0A00616972206F7574202D2A
:1007F6002D2D2D2D2D2D2D2D2D2D2D2D2D2D2D2D23
:100806002D2D2D2D63796C696E646572206F75745C
:100816000A007032206F70656E202D2D2D2D2D2D26
:100826002D2D2D2D2D2D2D2D2D2D2D2D2D2D2D70AF
:100836003220636C6177206F70656E0A007032201B
:10084600636C6F7365202D2D2D2D2D2D2D2D2D2DAA
:100856002D2D2D2D2D2D2D2D2D2D703220636C61DE
:100866007720636C6F73650A007033206F70656E56
:10087600202D2D2D2D2D2D2D2D2D2D2D2D2D2D2DAF
:100886002D2D2D2D2D2D703320636C6177206F70EB
:10089600656E0A00703320636C6F7365202D2D2DF5
:1008A6002D2D2D2D2D2D2D2D2D2D2D2D2D2D2D2D72
:1008B6002D703320636C617720636C6F73650A005B
:1008C6006920647574202D2D2D2D2D2D2D2D2D2D6A
:1008D6002D2D2D2D2D2D2D2D2D2D2D2D2D73776976
:1008E60074636820746F206D65617375726520642A
:1008F6007574206368617267696E672063757272CA
:10090600656E740A0072206561202D2D2D2D2D2D0A
:100916002D2D2D2D2D2D2D2D2D2D2D2D2D2D2D2D01
:100926002D2D73776974636820746F206D6561730C
:100936007572652065617270686F6E6541207265BB
:1009460073697374616E63650A0072206562202D97
:100956002D2D2D2D2D2D2D2D2D2D2D2D2D2D2D2DC1
:100966002D2D2D2D2D2D2D73776974636820746FB1
:10097600206D6561737572652065617270686F6E52
:10098600654220726573697374616E63650A0069F6
:10099600206561202D2D2D2D2D2D2D2D2D2D2D2D2F
:1009A6002D2D2D2D2D2D2D2D2D2D2D2D737769745E
:1009B600636820746F206D6561737572652065616B
:1009C6007270686F6E65412063757272656E740A27
:1009D6000069206562202D2D2D2D2D2D2D2D2D2DDF
:1009E6002D2D2D2D2D2D2D2D2D2D2D2D2D2D7377A1
:1009F6006974636820746F206D6561737572652014
:100A060065617270686F6E65422063757272656E9D
:100A1600740A00703220646F6E65202D2D2D2D2DE9
:100A26002D2D2D2D2D2D2D2D2D2D2D2D2D2D2D2DF0
:100A360064757420636F6E6E65637420746F2070C6
:100A46006F77657220737570706C792C6F75742072
:100A56006F66206D656173757265206D6F64650ADA
:100A660000706F776572206F6E202D2D2D2D2D2D28
:100A76002D2D2D2D2D2D2D2D2D2D2D2D2D2D647521
:100A86007420636F6E6E65637420746F20706F7769
:100A9600657220737570706C790A00706F77657275
:100AA600206F6666202D2D2D2D2D2D2D2D2D2D2DD6
:100AB6002D2D2D2D2D2D2D2D6475742064697363B8
:100AC6006F6E6E65637420746F20706F7765722029
:100AD600737570706C790A006C6566742073746146
:100AE6007475732D2D2D2D2D2D2D2D2D2D2D2D2D5B
:100AF6002D2D2D2D2D0A007269676874207374617F
:100B06007475732D2D2D2D2D2D2D2D2D2D2D2D2D3A
:100B16002D2D2D2D0A006C6967687420737461741D
:100B260075732D2D2D2D2D2D2D2D2D2D2D2D2D2D61
:100B36002D2D2D0A0070302F312F342073746174DF
:100B460075732D2D2D2D2D2D2D2D2D2D2D2D2D2D41
:100B56002D2D0A00696E736964652073746174755E
:100B6600732D2D2D2D2D2D2D2D2D2D2D2D2D2D2D69
:100B76002D0A006F757473696465207374617475EA
:100B8600732D2D2D2D2D2D2D2D2D2D2D2D2D2D0A6C
:100B9600007032207374617475732D2D2D2D2D2DDB
:100BA6002D2D2D2D2D2D2D2D2D2D0A00703220753C
:100BB6007073696465207374617475732D2D2D2DA2
:100BC6002D2D2D2D2D2D2D2D2D2D2D2D0A00703356
:100BD600207374617475732D2D2D2D2D2D2D2D2DB6
:100BE6002D2D2D2D2D2D2D0A007033207570736936
:100BF6006465207374617475732D2D2D2D2D2D2D27
:100C06002D2D2D2D2D2D2D2D2D0A00766572332E91
:100C1600300A00766572322E320A0066736E3A2505
:100C2600530A007361766520696E666F20007361F2
:100C3600766520696E666F202564204F4B0A003C5E
:100C46004E413E0A007265616420696E666F20003F
:100C56007265616420696E666F20256420252E36D4
:100C660034730A00000000000000000000000000CD
:100C7600000000000000000000000000000000006E
:100C8600000000000000000000000000000000005E
:100C9600000000000000000000000000000000004E
:040CA600000000004A
:102BEB00120DA0FF601DC3648094C1400DD3EF6430
:102BFB008094DA50057420120DE6740129F9E43A39
:042C0B00FA80DD224C
:101D8600900002EBF0A3EAF0A3E9F0900002E0FB7A
:101D9600A3E0FAA3E0F9122BEB78267C007DFF90F6
:101DA6000002E0FBA3E0FAA3E0F9120FD0EF700601
:101DB60012222C7F0122782B7C007DFF900002E00E
:101DC600FBA3E0FAA3E0F9120FD0EF700612001F92
:101DD6007F012278317C007DFF900002E0FBA3E0CA
:101DE600FAA3E0F9120FD0EF7006122D347F01220C
:101DF60078347C007DFF900002E0FBA3E0FAA3E0CC
:101E0600F9120FD0EF7006122D3D7F012278377C34
:101E1600007DFF900002E0FBA3E0FAA3E0F9120FB9
:101E2600D0EF7006122B997F0122900002E0FBA3EF
:101E3600E0FAA3E0F91228C4BF01097BFF7A007912
:101E46003B021F3A900002E0FBA3E0FAA3E0F9127E
:101E56001B8DBF01037F0122900002E0FBA3E0FA85
:101E6600A3E0F91220E9BF01097BFF7A0079460257
:101E76001F3A900002E0FBA3E0FAA3E0F91214A9CE
:101E8600BF01037F0122900002E0FBA3E0FAA3E07A
:101E9600F912235EBF01037F0122900002E0FBA33B
:101EA600E0FAA3E0F9121F4ABF01037F0122900066
:101EB60002E0FBA3E0FAA3E0F912197ABF01037F5F
:101EC600012278557C007DFF900002E0FBA3E0FA3A
:101ED600A3E0F9120FD0EF7005900177801A785DB4
:101EE6007C007DFF900002E0FBA3E0FAA3E0F9127C
:101EF6000FD0EF700790017604F0FF2278687C001F
:101F06007DFF900002E0FBA3E0FAA3E0F9120FD0F8
:101F1600EF700B900176F0900177F07F0122900030
:101F260002E0FBA3E0FAA3E0F9120DA07BFF700A22
:101F36007A007972122B087F01227A007974122BAB
:041F4600087F0022EE
:101B8D00900005EBF0A3EAF0A3E9F0900005E0F971
:101B9D00A3E0FAA3E0900053C9F0A3EAF0A3E9F0A3
:101BAD00A3E4F0A37405F07BFF7A0079781227BACD
:101BBD00EF6003021D83900005E0FBA3E0FAA3E0B4
:0E1BCD00F9900005120DB964206003021D831B
:101BDB00900006120DB924D075F00AA4FF900007EF
:101BEB00120DB924D02F900008F014B4100040034C
:101BFB00021D80901C0C75F003A4C58325F0C583D2
:101C0B0073021C3C021C53021C6A021C81021C9CAA
:101C1B00021CB3021CCA021CE2021CF4021D0502C8
:101C2B001D16021D27021D38021D49021D5A021DD9
:101C3B006B2086087BFF7A00797E80437BFF7A00DE
:101C4B00798F122B087F01222084087BFF7A007981
:101C5B00A1802C7BFF7A0079B2122B087F01222006
:101C6B0082087BFF7A0079C480157BFF7A0079D5D7
:101C7B00122B087F012220800C7BFF7A0079E71260
:101C8B002B087F01227BFF7A0079F8122B087F014A
:101C9B00222090087BFF7A01790A804A7BFF7A0128
:101CAB00791B1229957F01222092087BFF7A0179FB
:101CBB002D80337BFF7A01793E1229957F012220FB
:101CCB0094097BFF7A017950021D7A7BFF7A0179A7
:101CDB00611229957F01227BFF2096067A01797389
:101CEB0080047A017984021D7A7BFF2085067A01B4
:101CFB00799680047A0179A780757BFF2083067A19
:101D0B000179B980047A0179CB80647BFF2081064D
:101D1B007A0179DE80047A0179F080537BFF20C24F
:101D2B00067A02790380047A02791580427BFF20C0
:101D3B0091067A02792880047A02793A80317BFF06
:101D4B002093067A02794D80047A02795F80207B9A
:101D5B00FF2095067A02797280047A027984800FCB
:101D6B007BFF2097067A02799780047A0279A91271
:081D7B0029957F01227F00225F
:031D83007F0022BC
:1020E900900005EBF0A3EAF0A3E9F0900005E0F910
:1020F900A3E0FAA3E0900053C9F0A3EAF0A3E9F042
:10210900A3E4F0A37406F07BFF7A0279BC1227BA24
:10211900EF6003022229900005E0FBA3E0FAA3E0A7
:0E212900F9900006120DB9642060030222290D
:10213700900007120DB924D075F00AA4FF9000088B
:10214700120DB924D02FFF900008F090000A120D4D
:10215700B924D024FF9200EF14B4100040030222E8
:102167002690217675F003A4C58325F0C5837302F5
:1021770021A60221AE0221B60221BE0221C60221FA
:10218700CE0221D60221DE0221E60221EE0221F64D
:102197000221FE02220602220E02221602221EA29D
:1021A70000B392A27F0122A200B392A47F0122A2D0
:1021B70000B392A17F0122A200B392A67F0122A2BF
:1021C70000B392C37F0122A200B392B57F0122A27E
:1021D70000B392B77F0122A200B392B37F0122A27C
:1021E70000B392A37F0122A200B392A07F0122A293
:1021F70000B392A57F0122A200B392A77F0122A27A
:1022070000B392C07F0122A200B392B67F0122A23F
:1022170000B392B27F0122A200B392B47F01227F62
:02222700002293
:032229007F002211
:1014A900900005EBF0A3EAF0A3E9F0900005E0FB5A
:1014B900A3E0FAA3E0F8AC02AD037BFF7A0279C39B
:1014C900120FD0EF701B2082033080097BFF7A0254
:1014D90079CF0217307BFF7A0279DB122B087F0163
:1014E90022900005E0FBA3E0FAA3E0F8AC02AD030B
:1014F9007BFF7A0279E8120FD0EF70212082092050
:1015090080062090033092097BFF7A0279F5021751
:10151900307BFF7A03790A122B087F01229000059C
:10152900E0FBA3E0FAA3E0F8AC02AD037BFF7A038A
:101539007920120FD0EF701B2090033092097BFFA6
:101549007A03792D0217307BFF7A03793A122B0837
:101559007F0122900005E0FBA3E0FAA3E0F8AC02CA
:10156900AD037BFF7A037948120FD0EF70183086EC
:10157900097BFF7A0379520217307BFF7A03795C82
:10158900122B087F0122900005E0FBA3E0FAA3E0FB
:10159900F8AC02AD037BFF7A037967120FD0EF70C5
:1015A900183084097BFF7A0379710217307BFF7A3F
:1015B90003797B122B087F0122900005E0FBA3E051
:1015C900FAA3E0F8AC02AD037BFF7A037986120F28
:1015D900D0EF701B20940C3096097BFF7A03799425
:1015E9000217307BFF7A0379A2122B087F01229020
:1015F9000005E0FBA3E0FAA3E0F8AC02AD037BFF32
:101609007A0379B1120FD0EF701B30940C20960930
:101619007BFF7A0379C00217307BFF7A0379CF12F7
:101629002B087F0122900005E0FBA3E0FAA3E0F874
:10163900AC02AD037BFF7A0379DF120FD0EF702A7A
:1016490020910C3093097BFF7A0379F0021730302F
:10165900910C2093097BFF7A0479030217307BFFF1
:101669007A047914122B087F0122900005E0FBA36C
:10167900E0FAA3E0F8AC02AD037BFF7A0479291202
:101689000FD0EF702A20950C3097097BFF7A0479E7
:101699003A02173030950C2097097BFF7A04794D6F
:1016A9000217307BFF7A04795E122B087F012290A2
:1016B9000005E0FBA3E0FAA3E0F8AC02AD037BFF71
:1016C9007A047973120FD0EF702830850B308308B4
:1016D9007BFF7A04797D804F20850B2083087BFF6F
:1016E9007A04798780417BFF7A047992122B087FEB
:1016F9000122900005E0FBA3E0FAA3E0F8AC02ADFB
:10170900037BFF7A0479A0120FD0EF702C20810B94
:1017190020C2087BFF7A0479AA800C30810F30C27D
:101729000C7BFF7A0479B5122B087F01227BFF7AA3
:0C1739000479BF122B087F01227F0022E0
:10235E00900005EBF0A3EAF0A3E9F0900005E0FB96
:10236E00A3E0FAA3E0F8AC02AD037BFF7A0479CDCB
:10237E00120FD0EF700BD2B27BFF7A0479D4022405
:10238E0060900005E0FBA3E0FAA3E0F8AC02AD0319
:10239E007BFF7A0479DF120FD0EF700BC2B27BFF96
:1023AE007A0479E7022460900005E0FBA3E0FAA32B
:1023BE00E0F8AC02AD037BFF7A0479F3120FD0EF95
:1023CE007011C2A2D2A4C2A1D2A67BFF7A0479FB5D
:1023DE00022460900005E0FBA3E0FAA3E0F8AC0253
:1023EE00AD037BFF7A057907120FD0EF7010D2A2E2
:1023FE00C2A4D2A1C2A67BFF7A05791080549000A8
:10240E0005E0FBA3E0FAA3E0F8AC02AD037BFF7A94
:10241E0005791D120FD0EF7010C2C3D2B5C2B7D25C
:10242E00B37BFF7A0579258029900005E0FBA3E0B8
:10243E00FAA3E0F8AC02AD037BFF7A057931120FF7
:10244E00D0EF7014D2C3C2B5D2B7C2B37BFF7A0538
:0B245E00793A122B087F01227F002238
:101F4A00900005EBF0A3EAF0A3E9F0900005E0FBAE
:101F5A00A3E0FAA3E0F8AC02AD037BFF7A05794768
:101F6A00120FD0EF7017D2A7D2A5D2A0D2A3C2C0A7
:101F7A00C2B4C2B67BFF7A05794D0220E090000513
:101F8A00E0FBA3E0FAA3E0F8AC02AD037BFF7A051D
:101F9A007957120FD0EF7017D2B4D2C0C2B6D2A7F7
:101FAA00D2A5D2A0C2A37BFF7A05795C0220E09079
:101FBA000005E0FBA3E0FAA3E0F8AC02AD037BFF67
:101FCA007A057965120FD0EF7017D2B4D2C0C2B6B3
:101FDA00D2A7D2A5D2A3C2A07BFF7A05796A022032
:101FEA00E0900005E0FBA3E0FAA3E0F8AC02AD0341
:101FFA007BFF7A057973120FD0EF7017C2B4D2C083
:10200A00D2B6D2A5D2A0D2A3C2A77BFF7A0579788D
:10201A000220E0900005E0FBA3E0FAA3E0F8AC029E
:10202A00AD037BFF7A057981120FD0EF7017C2B426
:10203A00D2C0D2B6D2A7D2A0D2A3C2A57BFF7A05BC
:10204A0079860220E0900005E0FBA3E0FAA3E0F81D
:10205A00AC02AD037BFF7A05798F120FD0EF7016B1
:10206A00C2B4D2B6D2C0D2A3D2A0D2A5D2A77BFF85
:10207A007A0579988060900005E0FBA3E0FAA3E076
:10208A00F8AC02AD037BFF7A0579A5120FD0EF7089
:10209A0016C2B4C2B6D2C0D2A3D2A0D2A5D2A77B4E
:1020AA00FF7A0579AF802F900005E0FBA3E0FAA341
:1020BA00E0F8AC02AD037BFF7A0579BD120FD0EFD1
:1020CA00701AC2B4D2C0D2B6D2A7D2A5D2A0D2A315
:0F20DA007BFF7A0579C5122B087F01227F002238
:10222C007BFF7A0579D11229957BFF7A06790C12FE
:10223C0029957BFF7A0679381229957BFF7A0679E6
:10224C00701229957BFF7A0679A81229957BFF7A63
:10225C000679EE1229957BFF7A0779341229957B42
:10226C00FF7A0779481229957BFF7A07795612294C
:10227C00957BFF7A07798D1229957BFF7A0779C3B5
:10228C001229957BFF7A0779ED1229957BFF7A0845
:10229C0079181229957BFF7A0879431229957BFFCF
:1022AC007A08796F1229957BFF7A08799A12299509
:1022BC007BFF7A0879C61229957BFF7A09790B1274
:1022CC0029957BFF7A0979501229957BFF7A097938
:1022DC00951229957BFF7A0979D71229957BFF7A7C
:1022EC000A79191229957BFF7A0A79671229957B4D
:1022FC00FF7A0A79A11229957BFF7A0A79DE1229D5
:10230C00957BFF7A0A79FD1229957BFF7A0B791C54
:10231C001229957BFF7A0B793B1229957BFF7A0B5F
:10232C00795A1229957BFF7A0B79791229957BFFC3
:10233C007A0B79971229957BFF7A0B79B212299532
:10234C007BFF7A0B79D41229957BFF7A0B79EF02FC
:02235C002995C1
:04001F0075C7A022DF
:092D34007BFF7A0C79110229954C
:092D3D007BFF7A0C79190229953B
:102B9900E4900005F07B017A0079067D28122B3B31
:102BA900E490002DF090005304F0A37400F0A37496
:0B2BB90006F07BFF7A0C7921022995C1
:0B28C400900005EBF0A3EAF0A3E9F0A0
:1028CF00120DA06473705A900005E0FBA3E0FAA309
:1028DF00E0F9900001120DB9646E7045900002127C
:1028EF000DB9643A703B7F03900005E0FBA3E0FA5B
:1028FF00A3E0F98F82758300120DB9FE74052FF5D1
:10290F0082E43400F583EEF00FEFB425DBE4FFFE35
:10291F00122CBF7B017A0079087D28122ACF7F0104
:03292F00227F0004
:012932002282
:10197A00900005EBF0A3EAF0A3E9F090005374FF9E
:10198A00F0A3740CF0A37429F0A3E4F0A3740AF092
:10199A00900005E0FBA3E0FAA3E0F91227BAEF6092
:0419AA0003021A70AA
:1019AE00F9900008C9F0A3F0A3E9F0900005E0FB60
:1019BE00A3E0FAA3E0240AF9E43AFA90000BEBF064
:1019CE00A3EAF0A3E9F0E4A3F0A3F0C00390005360
:1019DE0004F0A37400F0A37408F0A3740AF0D0030B
:1019EE0012174590000EEEF0A3EFF0D295D296901E
:1019FE000008E0FBA3E0FAA3E0F9120DA06420704A
:101A0E005E90000EE0FEA3E0FFD39400EE94004043
:101A1E004EEF94F6EE94005046E0240AFF90000E2E
:101A2E00E03400FEEF7806C333CE33CED8F9FDACEA
:101A3E0006E92401F9E43AFA9000567440F0A374D2
:101A4E0002F07FA01228417BFF7A0C793490000EB1
:101A5E00E0FFA3E0900053CFF0A3EFF0021B78025B
:021A6E001B7EDD
:101A700090005374FFF0A3740CF0A3744BF0A3E434
:101A8000F0A3740AF0900005E0FBA3E0FAA3E0F9EC
:091A90001227BAEF6003021B8A61
:101A9900F9900008C9F0A3F0A3E9F0900005E0FB74
:101AA900A3E0FAA3E0240AF9E43AFA90000BEBF078
:101AB900A3EAF0A3E9F0E4A3F0A3F078107C007D99
:101AC900017BFF7A0C796AFE7F40120D7A900053F0
:101AD9007401F0A37400F0A37408F0A3740AF090E1
:101AE900000BE0FBA3E0FAA3E0F912174590000E02
:101AF900EEF0A3EFF0D295D296900008E0FBA3E0B8
:101B0900FAA3E0F9120DA0706C90000EE0FEA3E0BC
:101B1900FFD39400EE9400405CEF94F6EE940050ED
:101B290054E0240AFF90000EE03400FEEF7806C36B
:101B390033CE33CED8F9FDAC067B017A007910900B
:101B490000567440F0A37402F07FA012255A900049
:101B59000EE0FFA3E0900053CFF0A3EFF0A37401D0
:101B6900F0A37400F0A37410F07BFF7A0C7956127D
:101B790029957F01227BFF7A0C7945122B087F0179
:011B89002239
:031B8A007F0022B7
:102CAA0090005BEFF090005BE0FF14F0EF6005121C
:052CBA002D4680F1220F
:10000300900058EEF0A3EFF090005874FFF5F01253
:0C0013000E3C45F06005122D2A80ED2205
:022D4600002269
:092D2A00007F0B7EBEDEFEDFFC23
:012D3300227D
:0D2D1D00E4F5C7F5C5F5C675C380F5C42201
:102C650075C78075C5018FC4EEF5C375C65A75C69F
:072C7500A500AFC2122D1DE6
:012C7C002235
:102C330075C78075C5028FC4EEF5C3AF058FC27526
:092C4300C65A75C6A500022D1D3C
:102CBF0075C78075C5038FC4EEF5C375C65A75C643
:052CCF00A500022D1D0F
:0E2ACF00900030EBF0A3EAF0A3E9F0A3EDF0E5
:102ADD00E4FC900033E0FFECC39F501EECFF7E0042
:102AED00900030E0FBA3E0FAA3E0F98C827583003F
:0A2AFD00120DB9FD122C330C80D825
:012B070022AB
:0B2B3B0090002EEBF0A3EAF0A3E9F0FD
:102B4600E4FCECC39D501EECFF7E00122C65900049
:102B56002EE0FBA3E0FAA3E0F98C82758300EF1266
:052B66000E1A0C80DDD9
:012B6B002247
:082D0C00410175004101740052
:102C7D0053877F759850438E04759CFD438E014399
:072C8D008E10D29CD2AC2294
:102C4C00EFB40A0D2009FDD20975990D2009FD80FC
:092C5C00032009FDD2098F992221
:102B08009000E2EBF0A3EAF0A3E9F09000E2E0FB2A
:102B1800A3E0FAA3E0F9120DA060179000E2A3E485
:102B280075F001120E3CA9F0FA120DA0FF122C4C00
:032B380080D9221F
:0B299500900050EBF0A3EAF0A3E9F083
:1029A00090007B7401F0A37400F0A37453F09000C6
:1029B00050E0F9A3E0FAA3E09000E2C9F0A3EAF046
:1029C000A3E9F090007BE0F9A3E0FAA3E09000E532
:1029D000C9F0A3EAF0A3E9F07B017A00797E122A1C
:1029E000457B017A00797E122B0890007BE4F0A3EE
:0329F000F0A3F061
:0129F30022C1
:030023000229337C
:0F293300C0E0C083C082C0D075D000C006C0070E
:1029420030983CC298AF99EFB40D16900175E0240F
:1029520010F582E43401F583E4F090017404F08010
:102962001EEF640A6019900175E0C394645010E090
:10297200FE04F074102EF582E43401F583EFF0309A
:062982009904C299C2098C
:0D298800D007D006D0D0D082D083D0E0326E
:102C940046697874757265205265736574204F4B6C
:062CA4000A003E3E0A009A
:082D1400410176004101770046
:10260400E4900000F0A3F0F59775BBFF75B4107566
:1026140090FF75A0FF75B0FF75C0FFC2B4D2B2D2EF
:10262400A2C2A4D2A1C2A6D2C3C2B5D2B7C2B3C2F7
:10263400AF122C7DD2AF7BFF7A2C7994122B087BBE
:10264400FF7A2C79A6122B08900174E0B4011B7B4D
:10265400017A017910121D867BFF7A2C79A6122B40
:1026640008E4900175F0900174F0900176E0600345
:10267400122469900177E060031226A0900000E420
:1026840075F001120E3CFED3E5F094A8EE9461407F
:0C269400B7E4900000F0A3F0B2C580ACE9
:1026A000D286D282D290D294D285D281D291D29542
:1026B000C284C280C292C296C283C2C2C293C2976F
:1026C000D2A2D2A1D2C3D2B7D2A3D2A5D2C0D2B203
:1026D000C2A4C2A6C2B5C2B3C2A0C2A7C2B6C2B487
:1026E0007FF47E01120003C286C282C290C294C2ED
:1026F00085C281C291C295D284D280D292D296D222
:1027000083D2C2D293D297C2A2C2A1C2C3C2B7C25D
:10271000A3C2A5C2C0C2B2D2A4D2A6D2B5D2B3D2ED
:0E272000A0D2A7D2B6D2B47FF47E010200038D
:10246900C286C2A27FF47E01120003D286D2A2C222
:1024790084C2A47FF47E01120003D284D2A4C28252
:10248900C2A17FF47E01120003D282D2A1C280C20E
:10249900A67FF47E01120003D280D2A6C290C2C3E5
:1024A9007FF47E01120003D290D2C3C292C2B57FDB
:1024B900F47E01120003D292D2B5C294C2B77FF45E
:1024C9007E01120003D294D2B7C296C2B37FF47EC2
:1024D90001120003D296D2B3C285C2A37FF47E0152
:1024E900120003D285D2A3C283C2A07FF47E011257
:1024F9000003D283D2A0C281C2A57FF47E0112005B
:1025090003D281D2A5C2C2C2A77FF47E0112000301
:10251900D2C2D2A7C291C2C07FF47E01120003D2F7
:1025290091D2C0C293C2B67FF47E01120003D29346
:10253900D2B6C295C2B27FF47E01120003D295D2FF
:10254900B2C297C2B47FF47E01120003D297D2B40B
:01255900225F
:102C0F00EFF0A3ECF0A3EDF0A3EBF0A3EAF0A3E950
:012C1F00F0C4
:102C2000D287D2C17F04122CAAC2877F04122CAA99
:032C3000C2C122FC
:102CFA00C2C1C2877F04122CAAD2C1D2877F040222
:022D0A002CAAF1
:102B6C00E4900058F0D2877F01122CAAD2C17F01C9
:102B7C00122CAA308712900058E004F0E0D394FA9B
:0C2B8C0040F1122CFA7F0122C2C17F0030
:012B9800221A
:102CD400C2C1C2877F02122CAAD2C17F02122CAABF
:032CE400C2C12248
:102CE700C2C1D2877F02122CAAD2C17F02122CAA9C
:032CF700C2C12235
:052A8F00900058EFF07B
:102A9400C2C1E4A3F0900058E0FF5480FEC41313B5
:102AA40013540124FF9287EF25E0F07F02122CAA31
:102AB400D2C17F02122CAAC2C17F02122CAA90009A
:0A2AC40059E004F0E0C3940840CB91
:012ACE0022E5
:0529F400900058EFF017
:1029F900E490005AF0D2877F02122CAAE490005981
:102A0900F0C2C17F02122CAAD2C190005AE025E07F
:102A1900F0308703E004F07F01122CAA900059E0FE
:102A290004F0E0C3940840D9900058E07005122CD6
:0B2A3900E78003122CD490005AE0FF4D
:012A4400226F
:10255A00900050122C0F900057E064037010900006
:10256A0051E025E024FEFF900050E05F80289000B3
:10257A0057E064027013900050E054FEFF122A8F55
:10258A00122B6C900051E0800D900057E0B40118B6
:10259A00900050E054FEFF122A8F122B6C900052CA
:1025AA00E0FF122A8F122B6C122C20900050E0446C
:1025BA0001FF122A8F122B6C900056E06401601EF4
:1025CA00E014F07F011229F4900053E0FBA3E475B4
:1025DA00F001120E3CA9F0FAEF120E0880DAE4FFBD
:1025EA001229F4900053E0FBA3E475F001120E3CAB
:0A25FA00A9F0FAEF120E08022CFA05
:10284100900050122C0F900057E06403701090001C
:1028510051E025E024FEFF900050E05F80289000C9
:1028610057E064027013900050E054FEFF122A8F6B
:10287100122B6C900051E0800D900057E0B40113D1
:10288100900050E054FEFF122A8F122B6C900052E0
:10289100E0801D900056E0FF14F0EF601C900053A3
:1028A100E0FBA3E475F001120E3CA9F0FA120DA0B1
:1028B100FF122A8F122B6C80DA122CFA7F0A7E000B
:0328C1000200030F
:0300000002272EA6
:0C272E00787FE4F6D8FD75812102277544
:100CAA00E709F608DFFA8046E709F208DFFA803E2C
:100CBA0088828C83E709F0A3DFFA8032E309F60819
:100CCA00DFFA8078E309F208DFFA807088828C8381
:100CDA00E309F0A3DFFA806489828A83E0A3F60835
:100CEA00DFFA805889828A83E0A3F208DFFA804C0F
:100CFA0080D280FA80C680D4806980F280338010E6
:100D0A0080A680EA809A80A880DA80E280CA80334E
:100D1A0089828A83ECFAE493A3C8C582C8CCC583C6
:100D2A00CCF0A3C8C582C8CCC583CCDFE9DEE78096
:100D3A000D89828A83E493A3F608DFF9ECFAA9F015
:100D4A00EDFB2289828A83ECFAE0A3C8C582C8CC6B
:100D5A00C583CCF0A3C8C582C8CCC583CCDFEADE84
:100D6A00E880DB89828A83E493A3F208DFF980CCE6
:100D7A0088F0EF60010E4E60C388F0ED2402B404DF
:100D8A000050B9F582EB2402B4040050AF23234586
:060D9A008223900CFA73A5
:100DA000BB010689828A83E0225002E722BBFE0251
:090DB000E32289828A83E4932284
:100DB900BB010CE58229F582E5833AF583E02250EF
:100DC90006E92582F8E622BBFE06E92582F8E22239
:0D0DD900E58229F582E5833AF583E4932253
:100DE600BB010989828A83F8E028F022500327F79D
:100DF60022BBFE05F8E328F3228A838982F8E4936E
:020E06002822A0
:100E0800BB010689828A83F0225002F722BBFE01C9
:020E1800F322C3
:100E1A00F8BB010DE58229F582E5833AF583E8F00E
:100E2A00225006E92582C8F622BBFE05E92582C8BA
:020E3A00F222A2
:100E3C00A3F8E0C5F025F0F0E58215827002158369
:060E4C00E0C838F0E822C6
:100E5200E3F5F009E208B5F06D606B80F3E3F5F0BD
:100E620009E608B5F060605E80F387F009E608B530
:100E7200F054605280F487F009E208B5F048604609
:100E820080F488828C8387F009E0A3B5F03860365D
:100E920080F488828C8387F009E493A3B5F02760FD
:100EA2002580F388828C83E3F5F009E0A3B5F01680
:100EB200601480F388828C83E3F5F009E493A3B590
:100EC200F004600280F2020F7D808580E7808E80D0
:100ED200D2803C8015806C807E809B80B5808B8028
:100EE200A1804F8070803A020F8989828A83ECFA4E
:100EF200E493F5F0A3C8C582C8CCC583CCE493A320
:100F0200C8C582C8CCC583CCB5F070606E80E1895B
:100F1200828A83E493F5F0A3E208B5F05E605C8018
:100F2200F289828A83E0F5F0A3E608B5F04D604BC2
:100F320080F389828A83E0F5F0A3E208B5F03C6091
:100F42003A80F389828A83E493F5F0A3E608B5F048
:100F52002A602880F2805389828A83ECFAE493F52E
:100F6200F0A3C8C582C8CCC583CCE0A3C8C582C8DB
:100F7200CCC583CCB5F004600280E27FFFB5F002FD
:100F82000F2240027F012289828A83ECFAE0F5F087
:100F9200A3C8C582C8CCC583CCE0A3C8C582C8CCCF
:100FA200C583CCB5F0D560D380E389828A83ECFA1D
:100FB200E0F5F0A3C8C582C8CCC583CCE493A3C82E
:100FC200C582C8CCC583CCB5F0B160AF80E288F0F1
:100FD200ED2402B4040050A3F582EB2402B4040011
:0B0FE20050992323458223900ECB730F
:1027BA00900050EBF0A3EAF0A3E9F0900053E0FB9D
:1027CA00A3E0FAA3E0F9120DA0FE900050E0FBA3EB
:1027DA00E0FAA3E0F9120DA0FF6E702AEF600E90E6
:1027EA00005674FFF5F0120FED45F070037F0022DA
:1027FA00900051E475F001120FED900054E475F069
:10280A0001120FED80B5900050E0FBA3E0FAA3E0BF
:10281A00F9120DA0FDD3EE6480F8ED6480984003B0
:10282A007F0122900053E0FBA3E0FAA3E0F9120D26
:07283A00A0FFC3ED9FFF2288
:10174500900050EBF0A3EAF0A3E9F09000591210D5
:101755006C00000000E4900057F0A3F0900053E007
:10176500FBA3E0FAA3E0F9EA494B6020900050E0C2
:10177500FBA3E0FAA3E0F9EBC0E0EAC0E0E9C0E0D2
:10178500A3E0FBA3E0FAA3E0F912109D900050E05E
:10179500FBA3E475F001120E3CA9F0FA120DA0901E
:1017A500005DF0E0FFC394094006EFD3940D40DCE3
:1017B500EF642060D7EFB42D0C900057E0F0A3E064
:1017C5004403F0801D90005DE0B42B0C900057E0C1
:1017D500F0A3E04401F0800A90005174FFF5F01287
:1017E5000FED900056E0600464107051900050E0D9
:1017F500FBA3E0FAA3E0F9120DA06430600B9000A2
:1018050056E07039740AF08034900001120DB9FF6A
:1018150064786004EFB4581C900057E0F0A3E044EE
:1018250001F09000567410F0900051E475F002122A
:101835000FED8009900056E070037408F090005099
:10184500E0FBA3E475F001120E3CA9F0FA120DA01D
:1018550090005DF0E0FFC39461400AEFD3947A50A5
:1018650004EF54DFF090005DE024D0F0E0FFC39476
:101875000A400CEF9411407B90005DE024F9F09054
:101885000056E0FF90005DE0C39F5067900057E071
:10189500F0A3E04401F07E00E4FCFDA3E0F8A3E042
:1018A500F9A3E0FAA3E0FB121003C8ECC8C9EDC91F
:1018B500CAEECACBEFCB90005DE0FFE4FCFDFEEB8A
:1018C5002FFFEE3AFEED39FDEC38FC900059121071
:1018D50060900059E0FCA3E0FDA3E0FEA3E0FFEC6F
:1018E500334003021842900057E0F0A3E04404F0AF
:1018F500021842900058E020E006E4FFFEFDFC22BD
:10190500900053E0FBA3E0FAA3E0F9EA494B602617
:10191500900050E0FBA3E0FAA3E024FFF9EA34FFCE
:10192500FAEBC0E0EAC0E0E9C0E0A3E0FBA3E0FA1F
:10193500A3E0F912109D900057A3E030E21230E1C8
:1019450007E4FFFEFD7C802274FFFFFEFD7C7F2205
:10195500900058E030E10FA3E0FCA3E0FDA3E0FE1A
:10196500A3E0FF021052900059E0FCA3E0FDA3E0C4
:05197500FEA3E0FF22CB
:102A45009000E2E0FFA3E0FEA3E0CF9000EBF0A34F
:102A5500EEF0A3EFF09000E5E0CBF0A3E0CAF0A321
:102A6500E0C9F07F229000EEAD82AC83120DA08DFF
:102A7500828C83F0A309E970010ADFEC9000E5E0A0
:0A2A8500FBA3E0FAA3E0F90211A997
:10273A00022604E493A3F8E493A34003F68001F28B
:10274A0008DFF48029E493A3F85407240CC8C333A0
:10275A00C4540F4420C8834004F456800146F6DF6F
:10276A00E4800B0102040810204080902D0CE47EC6
:10277A00019360BCA3FF543F30E509541FFEE49364
:10278A00A360010ECF54C025E060A840B8E493A32B
:10279A00FAE493A3F8E493A3C8C582C8CAC583CA56
:1027AA00F0A3C8C582C8CAC583CADFE9DEE780BE0E
:012D1C0000B6
:100FED00C5F0F8A3E028F0C5F0F8E582158270028F
:060FFD001583E038F0222C
:10100300E88FF0A4CC8BF0A42CFCE98EF0A42CFC8C
:101013008AF0EDA42CFCEA8EF0A4CDA8F08BF0A40A
:101023002DCC3825F0FDE98FF0A42CCD35F0FCEB69
:101033008EF0A4FEA9F0EB8FF0A4CFC5F02ECD392E
:0F104300FEE43CFCEAA42DCE35F0FDE43CFC229B
:0E105200C3E49FFFE49EFEE49DFDE49CFC22AF
:0C106000ECF0A3EDF0A3EEF0A3EFF02203
:10106C00A8828583F0D083D0821210831210831251
:10107C001083121083E473E493A3C583C5F0C58376
:10108C00C8C582C8F0A3C583C5F0C583C8C582C8CE
:01109C002231
:10109D00BB011A89828A83D0F0D0E0F8D0E0F9D074
:1010AD00E0FAD0E0FBE8C0E0C0F002110C5016E908
:1010BD00F8D083D082D0E0F9D0E0FAD0E0FBC08246
:1010CD00C0830210ECBBFE16E9F8D083D082D0E0CD
:0F10DD00F9D0E0FAD0E0FBC082C08302111522E7
:10114400E50824EBF582E43400F583E005082290F9
:1011540000E83007039000EBE475F0011210F5028B
:101164000DA02000E97F2ED2008018EF540F2490A8
:10117400D43440D4FF30040BEF24BFB41A0050031E
:101184002461FFE50960021509050CE50C700205F0
:101194000B30070E9000E8E475F0011210F5EF0231
:1011A4000E08022BC47403D2078003E4C207F508B7
:1011B4009000E812110CE4F509F50BF50CE5096053
:1011C400077F2012118780F5750AFFC201C200C291
:1011D40002C203C205C206C208121153FF700D30C9
:1011E40007057F00121198AF0CAE0B22B4255FC225
:1011F400D5C204121153FF24D0B40A00501A75F05A
:101204000A780930D50508B6FF0106C6A426F620DB
:10121400D5047002D20380D924CFB41A00EF50044D
:10122400C2E5D204021399D20180C6D20080C0D292
:101234000280BCD2D580BAD20580B47F2012118737
:101244002002077401B5090040F1121144FF121184
:10125400870211C1D208D2068095121144FB1211E3
:1012640044FA121144F94A4B7006796A7A147BFFE6
:1012740020022EE509602A7E008E82758300120DFD
:10128400B960060EEE650A70F0C2D5EBC0E0EAC0A4
:10129400E0E9C0E0EE1213E0D0E0F9D0E0FAD0E0EB
:1012A400FB120DA0FF60AAEBC0E0EAC0E0E9C0E0D9
:1012B400121187D0E02401F9D0E03400FAD0E0FB29
:1012C400E50A0460DCD50AD980877BFF7A1379DCD0
:1012D400D202809C791080027908C206C208800874
:1012E400D2D5790A8004790AC2D5E50A047002F5D8
:1012F4000AE4FAFDFEFF121144FC7B0820011312DC
:101304001144FD7B1030000A121144FE121144FFF7
:101314007B20EC3382D592D55013C3E43000069F72
:10132400FFE49EFEE42001039DFDE49CFCE4CBF875
:10133400C201EC700CCFCECDCCE824F8F870F38069
:1013440017C3EF33FFEE33FEED33FDEC33FCEB3329
:10135400FB994002FB0FD8E9EB300105F8D0E0C45B
:1013640048B201C0E00AEC4D4E4F78207B0070C2B9
:10137400EAB50A0040BCC0E01213E2D0F0D0E0208D
:101384000104C4C0E0C4B201C0F0121170D0F0D5A1
:10139400F0EB0211C112111E125E5312D858122F13
:1013A4004C122B4212DC4F12E44412E4491244431F
:0813B40012EA5512CE4612CEDA
:1013BC004512CE47148A5012332D12372E125A2B47
:1013CC00123B2312582014732A11F34800001252B6
:1013DC003F3F3F00790AA2D5200314300509B9100C
:1013EC00020404B9080104A2D5200602500104200D
:1013FC0002689202B509005034C0E07F2030031916
:10140C007F30A20272067205500F121439C202C24A
:10141C0006C205C2087F30800F300503E9C0E01218
:10142C001187300503D0E0F9D0E0B509CC300517B1
:10143C007F30B9100C1211877F583004077F7880E9
:10144C0003B908031211873002057F2D0211877F23
:10145C00202008F87F2B2006F322920280CF286EE2
:10146C00756C6C2900D2011211443001F8C201785C
:10147C000930D50108F60211F32D504349581211C9
:10148C00442403B405004001E490148593121178B0
:0D149C00743A121178D2037509040212D8B7
:0910EC00EBF608EAF608E9F62229
:1010F500F8E0FBA3A3E0F925F0F0E5821582700284
:071105001583E0FA38F02227
:09110C00EBF0A3EAF0A3E9F022E4
:09111500EBF208EAF208E9F2220B
:10111E00D083D082F8E4937012740193700DA3A360
:10112E0093F8740193F5828883E473740293686074
:06113E00EFA3A3A380DF74
:102BC400EFB40A07740D122BCF740A309811A89928
:102BD400B8130CC2983098FDA899C298B811F63071
:072BE40099FDC299F5992249
:00000001FF
