:1031CE0046697874757265205265736574204F4B2D
:0431DE000A3E3E0067
:081A350041033F0041034000A2
:103003001230F41227D17BFF7A3179CE122FA2121C
:103013002BB77F5E7E01122F3590033FE0600312D2
:0D302300236A900340E060E712217380E211
:1028B10020B304C2858002D28520B404C284800280
:1028C100D28420B504C2838002D28320B604C2829E
:1028D1008002D28220B704C2818002D28120A0046A
:1028E100C2808002D28020A104C2938002D29320B0
:1028F100A204C2948002D29420A304C2958002D281
:102901009520A404C2908002D29020A504C2918097
:0C29110002D29120A603C29222D2922290
:020009000022D3
:10313700009001FA740BF0A374BEF09001FBE01449
:0B314700F070F89001FAE014F070F056
:01315200225A
:0C324F00AE071FEE600512000980F5229A
:0C325B00AE071FEE600512313780F5222F
:1031E200438E805389F0438901758ACD758CD4D280
:0431F2008CD2A922B0
:03000B00023116A9
:10311600C0E0C083C082758ACD758CD4900342E02E
:1031260004F07006900341E004F0D082D083D0E032
:013136003266
:09327300900341E0FEA3E0FF22FC
:1024A00053573C253031642E25303164253031645A
:1024B0003E0A0053575B253031642E2530316425A8
:1024C0003031645D3C4F4B3E0A0048573C2530316B
:1024D000642E25303164253031643E0A0048575B54
:1024E000253031642E25303164253031645D3C4F18
:1024F0004B3E0A0046534E3C252E3130733E0A00B7
:1025000046534E5B252E3130735D3C4F4B3E0A00E7
:10251000726F6D5B00524F4D5B25645D5B252E3401
:10252000665D3C4F4B3E0A00524F4D5B25645D3C5F
:07253000252E34663E0A006F
:101A3D00619D0000C8C80144494F2D3030322D3012
:101A4D00313F800000400000004040000040800019
:101A5D000040A0000040C0000040E0000041000038
:101A6D000041100000412000004130000000000046
:101A7D000000000000000000000000000000000059
:101A8D000000000000000000000000000000000049
:101A9D000041A80000000000000000000000000050
:101AAD000000000000000000000000000000000029
:101ABD0000000000000000000041F80000000000E0
:101ACD000000000000000000000000000000000009
:101ADD0000000000000000000000000000000000F9
:101AED000042240000000000000000000000000083
:101AFD0000000000000000000000000000000000D9
:101B0D00000000000000000000424C00000000003A
:101B1D0000000000000000000000000000000000B8
:101B2D0000000000000000000000000000000000A8
:101B3D0000427400000000000000000000000000E2
:101B4D000000000000000000000000000000000088
:101B5D00000000000000000000428E0000000000A8
:101B6D000000000000000000000000000000000068
:101B7D000000000000000000000000000000000058
:101B8D000042A20000000000000000000000000064
:101B9D000000000000000000000000000000000038
:101BAD0000000000000000000042B6000000000030
:101BBD000000000000000000000000000000000018
:101BCD000000000000000000000000000000000008
:011BDD000007
:0D324200E4F5C7F5C5F5C675C380F5C422D7
:10319F0075C78375C5018FC4EEF5C375C65A75C65D
:0731AF00A500AFC21232427D
:0131B60022F6
:10316D0075C78375C5028FC4EEF5C3AF058FC275E4
:09317D00C65A75C6A500023242D3
:10000E0075C78375C5038FC4EEF5C375C65A75C61D
:05001E00A500023242C2
:102B5C00E49001B5F0A3F07B01A304F0A37400F0A2
:102B6C00A37400F0E4FFFE12000EE49001B5F0A394
:102B7C00F09001B5E0FEA3E0FFA3E0FBA3E0FAA315
:102B8C00E0F98F828E8312061EFD12316D9001B614
:102B9C00E004F070069001B5E004F0C39001B6E0DB
:0A2BAC00949D9001B5E0940140C72C
:012BB60022FC
:1027D100E490019DF0A3F07B01A304F0A37400F049
:1027E100A37400F07F007E0312319FEF6459600FE4
:1027F100122B5C7F007E0312000E7D5912316DE4B5
:1028010090019DF0A3F090019DE0FEA3E0FFC39431
:102811009DEE9401502B12319FA3E0FBA3E0FAA39C
:10282100E0F990019DE0FCA3E0F5828C83EF1206B4
:102831007F90019EE004F070CD90019DE004F08056
:01284100C5D1
:012842002273
:102C5B00900001E0FB7C007D64FF7E001206A190DA
:102C6B0001F5EEF0A3EFF07C007D64AF037E001264
:102C7B0006A1AA04AB057D0A7C00AF03AE021206C7
:102C8B00A1A3EEF0A3EFF07D0A7C00AF03AE02121E
:102C9B0006A1A3ECF0A3EDF07BFF7A2479A0022927
:012CAB00E642
:102A45009001A7EFF0900001F0122B5C9001A7E038
:102A5500FB7C007D64FF7E001206A19001F5EEF07F
:102A6500A3EFF07C007D64AF037E001206A1AA04EB
:102A7500AB057D0A7C00AF03AE021206A1A3EEF002
:102A8500A3EFF07D0A7C00AF03AE021206A1A3EC12
:0D2A9500F0A3EDF07BFF7A2479B30229E66F
:102CAC00900000E0FB7C007D64FF7E001206A1908A
:102CBC0001F5EEF0A3EFF07C007D64AF037E001213
:102CCC0006A1AA04AB057D0A7C00AF03AE02120676
:102CDC00A1A3EEF0A3EFF07D0A7C00AF03AE0212CD
:102CEC0006A1A3ECF0A3EDF07BFF7A2479CA0229AC
:012CFC00E6F1
:102AA2009001A7EFF0900000F0122B5C9001A7E0DC
:102AB200FB7C007D64FF7E001206A19001F5EEF022
:102AC200A3EFF07C007D64AF037E001206A1AA048E
:102AD200AB057D0A7C00AF03AE021206A1A3EEF0A5
:102AE200A3EFF07D0A7C00AF03AE021206A1A3ECB5
:0D2AF200F0A3EDF07BFF7A2479DD0229E6E8
:1031B7009001F57401F0A37400F0A37403F07BFF92
:0731C7007A2479F40229E6E5
:0B2986009001A7EBF0A3EAF0A3E9F03A
:10299100A37401F0A37400F0A37403F0E4FF9001A9
:1029A100A7E0FBA3E475F00112070CA9F0FA1206E7
:1029B10005FE9001AAE0FBA3E0FAA3E0F98F82757E
:1029C1008300EE12067F0FEFB40AD3122B5C900145
:1029D100F57401F0A37400F0A37403F07BFF7A2572
:0529E10079000229E667
:101D7B009001A7EBF0A3EAF0A3E9F09001F574FF53
:101D8B00F0A37425F0A37410F0A3E4F0A37404F093
:101D9B009001A7E0FBA3E0FAA3E0F9122651EF6054
:041DAB0003021ED73A
:101DAF00F99001AAC9F0A3F0A3E9F09001A7E0FB15
:101DBF00A3E0FAA3E02404F9E43AFA9001ADEBF0C2
:101DCF00A3EAF0A3E9F09001F57401F0A37401F018
:101DDF00A374AAF0A3740AF09001ADE0FBA3E0FA9C
:101DEF00A3E0F91215EB9001B4EFF09001AAE0FB1C
:101DFF00A3E0FAA3E0F9120605645D6003021ED4A6
:101E0F0090000112061E645B6003021ED49001B4A1
:101E1F00E0FFD394005003021ED4EFD39464400329
:101E2F00021ED49001ADE4F0A3F0A3F09001AAA399
:101E3F00A3E02402F9E43AFA9001B87401F0A37414
:101E4F0001F0A374ADF012291D9001B0120730906C
:101E5F0001ADE0FBA3E0FAA3E0F990FFFF12061E2D
:101E6F00645D7061120605705C9001B0E0FCA3E048
:101E7F00FDA3E0FEA3E0FFA3E075F004A42409F5A1
:101E8F0082E5F03400F583120730122B5C7BFF7A6A
:101E9F002579159001B4E0FD9001F5E4F0A3EDF084
:101EAF0075F004A42409F582E5F03400F583E0FC15
:101EBF00A3E0FDA3E0FEA3E0FF9001F712073012AD
:081ECF0029E67F01227F0022B9
:031ED7007F002267
:101FC0009001A7EBF0A3EAF0A3E9F09001F574FF0C
:101FD000F0A37425F0A37410F0A3E4F0A37404F04C
:101FE0009001A7E0FBA3E0FAA3E0F9122651EF600D
:041FF0000302209F29
:101FF400F99001AAC9F0A3F0A3E9F09001A7E0FBCE
:10200400A3E0FAA3E02404F9E43AFA9001ADEBF07A
:10201400A3EAF0A3E9F0E4A3F0C0039001F504F00F
:10202400A37401F0A374AAF0A3740AF0D0031215E8
:10203400EB9001B0EFF09001AAE0FBA3E0FAA3E07B
:10204400F9120605645D704D90000112061E70457C
:102054009001B0E0FFD39400403BEFD3946450353B
:102064007BFF7A257928E0FD9001F5E4F0A3EDF0FB
:1020740075F004A42409F582E5F03400F583E0FC4E
:10208400A3E0FDA3E0FEA3E0FF9001F712073012E6
:0B20940029E67F012212327C7F01222E
:03209F007F00229D
:060003003C4E413E0A00E4
:051BDE0042030A0000B3
:1031530053877F759850438E0475B710759CFD4354
:0A3163008E01438E10D29CD2AC22E4
:10318600EFB40A0D200AFDD20A75990D200AFD80BA
:0931960003200AFDD20A8F9922E0
:102FA200900284EBF0A3EAF0A3E9F0900284E0FB44
:102FB200A3E0FAA3E0F91206056017900284A3E4E5
:102FC20075F00112070CA9F0FA120605FF123186FC
:032FD20080D92281
:0B29E6009001F2EBF0A3EAF0A3E9F08F
:1029F10090021D7401F0A37401F0A374F5F090012D
:102A0100F2E0F9A3E0FAA3E0900284C9F0A3EAF0AE
:102A1100A3E9F090021DE0F9A3E0FAA3E090028798
:102A2100C9F0A3EAF0A3E9F07B017A027920122D23
:102A3100E87B017A027920122FA290021DE4F0A313
:032A4100F0A3F00F
:012A4400226F
:030023000225377C
:10253700C0E0C083C082C0D075D000C004C005C051
:01254700078C
:10254800309864C298AF9990030AE0FCEC20E757F2
:1025580030E60FEF640A90030A60028046E0448088
:10256800800AEFB40D0C90030AE04440F0A3E0F0B9
:10257800803590030AE0543FFCA3E024BAF5827446
:10258800023CF583EFF090030BE004F07006900333
:102598000AE004F0D390030BE0944F90030AE09410
:0E25A800004004E4F0A3F0309904C299C20A86
:0F25B600D007D005D004D0D0D082D083D0E0326F
:09327C007BFF7A007903022FA206
:093285003C4E413E0A003E3E00B1
:1030F400E4F5977590FF75A0FF75B0FF75C0FF7577
:103104009680C2AF1231531231E27F6412325BD225
:02311400AF22E8
:0132A2002209
:102BB70090030AE0FEA3E0FFEE30E745EF24BAF505
:102BC70082E43402F583E4F07B017A0279BA122FAA
:102BD700A27F0A1231869002BAE060157B017A0261
:102BE70079BA121260EF70097BFF7A327985122F5A
:102BF700A27BFF7A32798B122FA2E490030AF0A30B
:012C0700F0DC
:012C080022A9
:082F350090019DEEF0A3EFF006
:102F3D00123273900332E0FCA3E0FDC3EF9DFFEE70
:102F4D009CFE123267C390019EE09F90019DE09E12
:0F2F5D00500DB2A7123273900332EEF0A3EFF0D3
:012F6C002242
:10217300123273900334E0FCA3E0FDC3EF9DFFEE46
:102183009CFE123267D3EF94E8EE64809483403C64
:10219300D2B3D2B5D2B7D2A1D2A3D2A5C2B4C2B65A
:1021A300C2A0C2A2C2A4C2A6D285D283D281D29334
:1021B300D295D291C284C282C280C294C290C2928A
:1021C300123273900334EEF0A3EFF02212327390C5
:1021D3000334E0FCA3E0FDC3EF9DFFEE9CFE12324F
:1021E30067D3EF94F4EE648094814030C2B3C2B5F8
:1021F300C2B7C2A1C2A3C2A5D2B4D2B6D2A0D2A240
:10220300D2A4D2A6C285C283C281C293C295C2910F
:0C221300D284D282D280D294D290D29297
:01221F00229C
:0432970075C7602275
:04329B0075C72022B1
:102FD500696E745B00494E545B25645D3C25643E17
:102FE5000A006F75745B004F55545B25645D5B2566
:0E2FF500645D3C4F4B3E0A003C4E413E0A00DC
:041BE3004103450075
:1022C600AE07EEB4010930B3037F00227F0122EE90
:1022D600B4020A30B4047F0080027F0122EEB40308
:1022E6000A30B5047F0080027F0122EEB4040A3072
:1022F600B6047F0080027F0122EEB4050A30B704DF
:102306007F0080027F0122EEB4060A30A0047F001F
:1023160080027F0122EEB4070A30A1047F0080020A
:102326007F0122EEB4080A30A2047F0080027F01FA
:1023360022EEB4090A30A3047F0080027F0122EE58
:10234600B40A0A30A4047F0080027F0122EEB40B97
:102356000930A5037F00227F012230A6047F00807A
:04236600027F0122CF
:1020A2009001A7EBF0A3EAF0A3E9F09001F574FF29
:1020B200F0A3742FF0A374D5F0A3E4F0A37404F09A
:1020C2009001A7E0FBA3E0FAA3E0F9122651EF602A
:0420D2000302217074
:1020D600F99001AAC9F0A3F0A3E9F09001A7E0FBEB
:1020E600A3E0FAA3E02404F9E43AFA9001ADEBF098
:1020F600A3EAF0A3E9F0E4A3F0C0039001F504F02D
:10210600A37401F0A374AAF0A3740AF0D003121505
:10211600EB9001B0EFF09001AAE0FBA3E0FAA3E098
:10212600F9120605645D703C90000112061E7034BB
:102136009001B0E0FFD39400402AEFD3940C5024D2
:102146001222C69001F7E4F0A3EFF07BFF7A2F7915
:10215600DA9001B0E0FF9001F5E4F0A3EFF0122968
:0A216600E67F012212328E7F012273
:032170007F0022CB
:101BE8009001A7EBF0A3EAF0A3E9F09001F574FFE8
:101BF800F0A3742FF0A374E7F0A3E4F0A37404F047
:101C08009001A7E0FBA3E0FAA3E0F9122651EF60E8
:041C180003021D782E
:101C1C00F99001AAC9F0A3F0A3E9F09001A7E0FBA9
:101C2C00A3E0FAA3E02404F9E43AFA9001ADEBF056
:101C3C00A3EAF0A3E9F09001F57401F0A37401F0AC
:101C4C00A374AAF0A3740AF01215EB9001B0EFF094
:101C5C009001AAE0FBA3E0FAA3E0F9120605645D8B
:101C6C006003021D7290000112061E645B60030289
:101C7C001D729001B0E0FFD394005003021D72EF6F
:101C8C00D3940C4003021D7290000212061E24D045
:101C9C0024FF920090000312061E645D6003021D77
:101CAC00729001AAA3A390000412061E6003021DE9
:101CBC00729001B0E014B40C004003021D4E901C55
:101CCC00D875F003A4C58325F0C58373021CFC02F0
:101CDC001D03021D0A021D11021D18021D1F021DEB
:101CEC0026021D2D021D34021D3B021D42021D4900
:101CFC00A200B39285804BA200B392848044A200D0
:101D0C00B39283803DA200B392828036A200B3923C
:101D1C0081802FA200B392808028A200B39293807E
:101D2C0021A200B39294801AA200B392958013A2C0
:101D3C0000B39290800CA200B392918005A200B3E4
:101D4C0092927BFF7A2F79EC9001B0E0FF9001F535
:101D5C00E4F0A3EFF0A200E4FF33A3CFF0A3EFF085
:0C1D6C001229E67F012212328E7F012234
:031D78007F0022C7
:09328E007BFF7A2F79FD022FA2CB
:10236A00C2B3C2857F3212325BD2B3D285C2B4C243
:10237A00847F3212325BD2B4D284C2B5C2837F3236
:10238A0012325BD2B5D283C2B6C2827F3212325BBC
:10239A00D2B6D282C2B7C2817F3212325BD2B7D2F0
:1023AA0081C2A0C2807F3212325BD2A0D280C2A187
:1023BA00C2937F3212325BD2A1D293C2A2C2947F5D
:1023CA003212325BD2A2D294C2A3C2957F321232A7
:1023DA005BD2A3D295C2A4C2907F3212325BD2A43E
:1023EA00D290C2A5C2917F3212325BD2A5D291C2DB
:0D23FA00A6C2927F3212325BD2A6D292228E
:0132A3002208
:1030AC00EFF0A3ECF0A3EDF0A3EBF0A3EAF0A3E9AF
:0130BC00F023
:1030BD00D296D2977F0412324FC2967F0412324FAE
:0330CD00C2972285
:10323000C297C2967F0412324FD297D2967F040271
:02324000324F0B
:10303000E49001FAF0D2967F0112324FD2977F01CD
:1030400012324F3096129001FAE004F0E0D394FA75
:0C30500040F11232307F0122C2977F0055
:01305C002251
:10320A00C297C2967F0212324FD2977F0212324F72
:03321A00C2972236
:10321D00C297D2967F0212324FD2977F0212324F4F
:03322D00C2972223
:042E3200E054FEFF6B
:052E36009001FAEFF02D
:102E3B00C297E4A3F09001FAE0FF5480FEC4131391
:102E4B0013540124FF9296EF25E0F07F0212324FCC
:102E5B00D2977F0212324FC2977F0212324F9001EC
:0A2E6B00FBE004F0E0C3940840CB44
:012E7500223A
:052CFD009001FAEFF068
:102D0200E49001FCF0D2967F0212324FE49001FB74
:102D1200F0C2977F0212324FD2979001FCE025E079
:102D2200F0309603E004F07F0112324F9001FBE095
:102D320004F0E0C3940840D99001FAE07005123221
:0B2D42001D800312320A9001FCE0FF2C
:012D4D002263
:102EF900900343EFF0A3EDF01230BD900343122E7F
:102F090032123030900344E0FF122E361230301264
:102F190030BD900343E04401FF122E36123030E4F5
:0C2F2900FF122CFD900344EFF002323048
:0E27550090031AEFF0A3EBF0A3EAF0A3E9F073
:10276300E490031FF01230BD90031A122E32123080
:102773003090031BE0FBA3E0FAA3E0F9120605FF88
:10278300122E361230301230BD90031AE04401FF8E
:10279300122E36123030E490031FF090031EE0FF38
:1027A300A3E0C39F5025E4FF122CFD90031BE0FB25
:1027B300A3E0FAA3E0F990031FE0F582758300EF2D
:0E27C30012067F90031FE004F080D002323037
:102F6D00900336EFF0A3EDF0A3EBF01230BD90031C
:102F7D0036122E32123030900337E0FF122E3612F9
:102F8D003030900338E0FF122E36123030123230CE
:052F9D007F0A02325B17
:102E7600900320EF1230B0900320122E3212303021
:102E8600900321E0801D900325E0FF14F0EF601C05
:102E9600900322E0FBA3E475F00112070CA9F0FAF7
:102EA600120605FF122E3612303080DA1232307FCB
:042EB6000A02325B7F
:102220009001F21230AC9001F9E06403701090015B
:10223000F3E025E024FEFF9001F2E05F80249001AE
:10224000F9E06402700F9001F2122E3212303090D9
:1022500001F3E0800D9001F9E0B401189001F2E083
:1022600054FEFF122E361230309001F4E0FF122E91
:10227000361230301230BD9001F2E04401FF122ED0
:10228000361230309001F8E06401601EE014F07FF7
:1022900001122CFD9001F5E0FBA3E475F00112079B
:1022A0000CA9F0FAEF12066D80DAE4FF122CFD9013
:1022B00001F5E0FBA3E475F00112070CA9F0FAEFB9
:0622C00012066D0232302F
:1026D8009001F21230AC9001F9E06403701090019F
:1026E800F3E025E024FEFF9001F2E05F80249001F2
:1026F800F9E06402700F9001F2122E32123030901D
:1027080001F3E0800D9001F9E0B401139001F2E0CB
:1027180054FEFF122E361230309001F4E0801D90E6
:1027280001F8E0FF14F0EF601C9001F5E0FBA3E472
:1027380075F00112070CA9F0FA120605FF122E36E1
:0D27480012303080DA1232307F0A02325B2C
:03329F000232A355
:082D9E00900339EEF0A3EFF001
:102DA600E4A3F01230BD7FA0122E3612303090030D
:102DB60039E0FF122E3612303090033AE0FF122E21
:102DC600361230301230BD7FA1122E36123030E46A
:102DD600FF122CFD90033BEFF012323090033BE0E4
:012DE600FFED
:012DE70022C9
:102EBA0090033CEEF0A3EFF0A3EDF01230BD7FA03B
:102ECA00122E3612303090033CE0FF122E361230AA
:102EDA003090033DE0FF122E3612303090033EE070
:0F2EEA00FF122E361230301232307F0A02325B66
:102AFF00900326EEF0A3EFF0A3ECF0A3EDF0A3EB21
:012B0F00F0D5
:102B1000E4A3F090032AE0FFA3E0C39F503DE0FD53
:102B2000FF900327E02FFF900326E03400FEC0064D
:102B3000C007ED75F008A4FF900328E0FEA3E0A80D
:102B400007088005CEC313CE13D8F9FDD007D006F1
:0B2B5000122EBA90032BE004F080B8B6
:012B5B002257
:0B28430090032CEEF0A3EFF0A3EDF0EB
:10284E00E4900330F0A3F090032FF090032EE0FD00
:10285E00A3E0FCC39D5043900331E0F8E4F0E89010
:10286E000330F0EDFF90032DE02FFF90032CE034AA
:10287E0000FEECFDC3EF9DFFEE9400CF24FFCF349E
:10288E00FFFE122D9E900331E02FF0900330E034C6
:10289E0000F090032FE004F080B1900330E0FEA32F
:0228AE00E0FF49
:0128B0002205
:10305D007FFF7E00122D9EEFB455037F00227D551C
:10306D007FFF7E00122EBA7FFF7E00122D9EEFB4E1
:07307D0055037F00227F01D3
:013084002229
:102D4E0090030CEEF0A3EFF0A3EBF0A3EAF0A3E9EF
:102D5E00F0900311E07002A3E0603490030CE47570
:102D6E00F00112070CAFF0FE122D9E90030EE0FB49
:102D7E00A3E475F00112070CA9F0FAEF12066D909C
:102D8E000312E024FFF0900311E034FFF080C22222
:102C0900900313EEF0A3EFF0A3EBF0A3EAF0A3E92E
:102C1900F090031874FFF5F012070C45F06032903C
:102C29000313E0FEA3E0FFA3E0FBA3E0FAA3E0F9AE
:102C3900120605FD122EBA900314E004F0700690F6
:102C49000313E004F0900316E475F0011206F68010
:022C5900C02297
:100E810068656C70007265736574007377006877CC
:100E91000066736E00696F2074657374007374610A
:100EA100727420746573740073746F702074657349
:100EB100740073775B0068775B0066736E5B007329
:100EC1006574203576005345542035563C4F4B3ED2
:100ED1000A00736574203076005345542030563C27
:100EE1004F4B3E0A0053656E642D2D2D2D2D2D2D5A
:100EF1002D526563656976652D2D2D2D2D2D2D2D99
:100F01002D2D6D65616E696E670A0073772D2D2D2C
:100F11002D2D2D2D2D2D2D53573C312E30303E2D85
:100F21002D2D2D2D2D2D2D2D47657420736F66745C
:100F3100776172652076657273696F6E0A006877F2
:100F41002D2D2D2D2D2D2D2D2D2D48573C322E3073
:100F5100303E2D2D2D2D2D2D2D2D2D4765742068E5
:100F6100617264776172652076657273696F6E0A6A
:100F71000066736E2D2D2D2D2D2D2D2D2D46534EAD
:100F81003C494E332D534D433E2D2D2D2D2D47657F
:100F91007420666978747572652073657269616C15
:100FA100206E756D6265720A0053575B5D2D2D2DA4
:100FB1002D2D2D2D2D53575B3131305D3C4F4B3E47
:100FC1002D2D2D2D2D2D53657420736F6674776132
:100FD10072652076657273696F6E0A0048575B5DB2
:100FE1002D2D2D2D2D2D2D2D48575B3230305D3C73
:100FF1004F4B3E2D2D2D2D2D2D5365742068617283
:1010010064776172652076657273696F6E0A004656
:10101100534E5B5D2D2D2D2D2D2D2D46534E5B53A6
:1010210053532D315D3C4F4B3E2D2D2D5365742077
:10103100666978747572652073657269616C206E7A
:10104100756D6265720A00524F4D5B5D2D2D2D2D20
:101051002D2D2D2D2D2D2D2D2D2D2D2D2D2D2D2DBF
:101061002D2D2D2D526561642044617461730A0038
:10107100524F4D5B5D5B5D2D2D2D2D2D2D2D2D2D7C
:101081002D2D2D2D2D2D2D2D2D2D2D2D2D577269E4
:1010910074652044617461730A00534156452049C7
:1010A1004E464F2058582059595959590A0052450E
:1010B100414420494E464F2058580A002A2A2A2ADC
:1010C1002A2A2A2A2A2A2A2A2A2A2A2A2A2A2A2A7F
:1010D1002A2A2A2A2A2A2A2A2A2A2A2A2A2A2A2A6F
:1010E1002A2A2A2A2A2A2A2A2A2A2A2A2A0A00498A
:1010F1004E545B5D2D2D2D2D2D2D494E545B315DB3
:101101003C303E2D2D2D2D2D2D2D2D2D476574205F
:1011110074686520696E7075742073746174757379
:101121000A004F55545B5D5B5D2D2D2D2D4F5554A0
:101131005B315D5B315D3C4F4B3E2D2D2D2D2D5394
:10114100657420746865206F75747075742073748C
:10115100617475730A005345542035562D2D2D2D7C
:101161002D5345542035563C4F4B3E2D2D2D2D2DC5
:101171005365742074686520706F727420746F20D9
:1011810035760A005345542030562D2D2D2D2D53E3
:1011910045542030563C4F4B3E2D2D2D2D2D536562
:1011A100742074686520706F727420746F203076BB
:1011B1000A00506C656173652073656E6420636F0E
:1011C1006D6D616E642061732061626F766520656B
:1011D1006E642077697468205C725C6E0A007361CA
:1011E100766520696E666F20007361766520696E91
:1011F100666F202564204F4B0A003C4E413E0A0099
:101201007265616420696E666F2000726561642099
:10121100696E666F20256420252E3634730A00001E
:1012210000000000000000000000000000000000BD
:1012310000000000000000000000000000000000AD
:10124100000000000000000000000000000000009D
:0F1251000000000000000000000000000000008E
:1030D000120605FF601DC3648094C1400DD3EF64E8
:1030E0008094DA5005742012064B740129F9E43AF1
:0430F000FA80DD2263
:1012600090019DEBF0A3EAF0A3E9F090019DE0FB73
:10127000A3E0FAA3E0F91230D090019DE0FBA3E0D7
:10128000FAA3E0F91220A2BF01037F012290019D81
:10129000E0FBA3E0FAA3E0F9121BE8BF01037F0122
:1012A0002290019DE0FBA3E0FAA3E0F9121D7BBFB1
:1012B00001037F012290019DE0FBA3E0FAA3E0F986
:1012C000121FC0BF01037F012278817C0E7DFF9039
:1012D000019DE0FBA3E0FAA3E0F912094FEF7006CD
:1012E0001224077F012278867C0E7DFF90019DE00D
:1012F000FBA3E0FAA3E0F912094FEF700612329B4C
:101300007F0122788C7C0E7DFF90019DE0FBA3E0A5
:10131000FAA3E0F912094FEF7006122C5B7F01224D
:10132000788F7C0E7DFF90019DE0FBA3E0FAA3E0A7
:10133000F912094FEF7006122CAC7F012278927CD3
:101340000E7DFF90019DE0FBA3E0FAA3E0F91209F6
:101350004FEF70061231B77F012278967C0E7DFF29
:1013600090019DE0FBA3E0FAA3E0F912094FEF70B2
:1013700005900340801A789E7C0E7DFF90019DE0D1
:10138000FBA3E0FAA3E0F912094FEF700790033FC7
:1013900004F0FF2278A97C0E7DFF90019DE0FBA365
:1013A000E0FAA3E0F912094FEF700790033FF07FD6
:1013B000012290019DE0F9A3E0FAA3E09001F5C9B4
:1013C000F0A3EAF0A3E9F0A3E4F0A37403F07BFF39
:0A13D0007A0E79B3122651EF706710
:1013DA00F99001A0C9F0A3F0A3E9F090019DE0FB08
:1013EA00A3E0FAA3E02403F9E43AFA9001A3EBF0AC
:1013FA00A3EAF0A3E9F09001F57401F0A37401F0F7
:10140A00A374A0F0A3740AF01215EB9001A6EFF0F2
:10141A009001A0E0FBA3E0FAA3E0F9120605B45D8F
:10142A001390000112061E700B9001A6E0FF122A0B
:07143A00457F01227F002223
:1014410090019DE0F9A3E0FAA3E09001F5C9F0A3B2
:10145100EAF0A3E9F0A3E4F0A37403F07BFF7A0EB2
:0814610079B7122651EF706704
:10146900F99001A0C9F0A3F0A3E9F090019DE0FB78
:10147900A3E0FAA3E02403F9E43AFA9001A3EBF01C
:10148900A3EAF0A3E9F09001F57401F0A37401F067
:10149900A374A0F0A3740AF01215EB9001A6EFF063
:1014A9009001A0E0FBA3E0FAA3E0F9120605B45D00
:1014B9001390000112061E700B9001A6E0FF122A7C
:0714C900A27F01227F002237
:1014D00090019DE0F9A3E0FAA3E09001F5C9F0A323
:1014E000EAF0A3E9F0A3E4F0A37404F07BFF7A0E22
:0B14F00079BB122651EF600302158645
:1014FB009001A0F09001A0E0FFC3940B502EEF24BD
:10150B0004FFE433FE90019DE0FBA3E0FAA3E0F9B6
:10151B008F828E8312061EB45D0A8F828E83E41235
:10152B00067F80089001A0E004F080C89001A0E045
:10153B00FFD394004042EF940B503D7E00EF240408
:10154B00FDEE33FC90019DE0FBA3E0FAA3E0F98DE7
:10155B00828C8312061E702074052FF582E433F5FE
:10156B008312061E701290019DA3A3E02404F9E4DC
:0B157B003AFA1229867F01227F00222D
:1015860090019DE0FBA3E0FAA3E0F9121820BF0149
:10159600037F012278C07C0E7DFF90019DE0FBA3B6
:1015A600E0FAA3E0F912094FEF700EC2C1C287C27A
:1015B600867BFF7A0E79C7802378D37C0E7DFF90D9
:1015C600019DE0FBA3E0FAA3E0F912094FEF7012C8
:1015D600D2C1D287D2867BFF7A0E79DA122FA27F0A
:0515E60001227F00223C
:102407007BFF7A0E79E6122FA27BFF7A0F790C12E7
:102417002FA27BFF7A0F793F122FA27BFF7A0F79CA
:1024270072122FA27BFF7A0F79AA122FA27BFF7A53
:102437000F79DD122FA27BFF7A107910122FA27B62
:10244700FF7A107948122FA27BFF7A107971122F29
:10245700A27BFF7A10799B122FA27BFF7A1079AFAC
:10246700122FA27BFF7A1079BD122FA27BFF7A1061
:1024770079F0122FA27BFF7A117923122FA27BFF0B
:102487007A117957122FA27BFF7A117985122FA221
:092497007BFF7A1179B3022FA238
:101820009001A7EBF0A3EAF0A3E9F09001F574FFB3
:10183000F0A37411F0A374DFF0A3E4F0A3740AF032
:101840009001A7E0FBA3E0FAA3E0F9122651EF60B4
:041850000302191C5A
:10185400F99001AAC9F0A3F0A3E9F09001A7E0FB75
:10186400A3E0FAA3E0240AF9E43AFA9001ADEBF01C
:10187400A3EAF0A3E9F0E4A3F0A3F0C0039001F518
:1018840004F0A37401F0A374AAF0A3740AF0D003C3
:101894001215EB9001B0EEF0A3EFF0D295D2969032
:1018A40001AAE0FBA3E0FAA3E0F9120605642070A4
:1018B4005E9001B0E0FEA3E0FFD39400EE940040FC
:1018C4004EEF94F6EE94005046E0240AFF9001B0E7
:1018D400E03400FEEF7806C333CE33CED8F9FDAC46
:1018E40006E92401F9E43AFA9001F87440F0A3748B
:1018F40002F07FA01226D87BFF7A1179EA9001B01A
:10190400E0FFA3E09001F5CFF0A3EFF0021A2C7BE7
:08191400FF7A1179FB021A2C85
:10191C009001F574FFF0A37412F0A37401F0A3E42A
:10192C00F0A3740AF09001A7E0FBA3E0FAA3E0F99E
:09193C00122651EF6003021A3279
:10194500F99001AAC9F0A3F0A3E9F09001A7E0FB83
:10195500A3E0FAA3E0240AF9E43AFA9001ADEBF02A
:10196500A3EAF0A3E9F0E4A3F0A3F078B27C017D4B
:10197500017BFF7A127920FE7F401205DF9001F589
:101985007401F0A37401F0A374AAF0A3740AF09093
:1019950001ADE0FBA3E0FAA3E0F91215EB9001B06D
:1019A500EEF0A3EFF0D295D2969001AAE0FBA3E06A
:1019B500FAA3E0F912060570689001B0E0FEA3E015
:1019C500FFD39400EE94004058EF94F6EE94005047
:1019D50050E0240AFF9001B0E03400FEEF7806C322
:1019E50033CE33CED8F9FDAC067B017A0179B290BE
:1019F50001F87440F0A37402F07FA0122220900138
:101A0500B0E0FFA3E09001F5CFF0A3EFF0A37401E0
:101A1500F0A37401F0A374B2F07BFF7A12790C8005
:0D1A2500067BFF7A1179FB1229E67F012272
:031A32007F002210
:10291D00D2009001B5120753122979C0E0FF123190
:10292D00F6D0E040F3121EED40219001B8E0FBA37C
:10293D00E0FAA3E0F94A4B60119001B5E0C0E0A3C5
:10294D00E0C0E0A3E0C0E012075C22ECC0E0EDC007
:10295D00E0EEC0E0EFC0E0122979D0F0AFF0D0F09A
:10296D00AEF0D0F0ADF0D0F0ACF080B9E475F00180
:09297D009001B512073C020605A9
:102DE800900284E0FFA3E0FEA3E0CF90028DF0A361
:102DF800EEF0A3EFF0900287E0CBF0A3E0CAF0A3D7
:102E0800E0C9F07F22900290AD82AC831206058D56
:102E1800828C83F0A309E970010ADFEC900287E055
:0A2E2800FBA3E0FAA3E0F9020A633D
:101EDA00C201C202C203C204F9E4F508F509FCFD15
:101EEA00FEFFE91000EA20030CB42D04D203D3222A
:101EFA00B42B02D32224D0504794095041240A30EB
:101F0A000415F88509F0740AA42872E74051C5F04F
:101F1A00704D85F009D322D202C0E0E4FBFA7920A1
:101F2A007841120168ECF8EDF9EEFAEFFBD0E0FC2B
:101F3A00E41203291200773001B41508D322240AC7
:101F4A00200420B4FE0720011AD201D32224EB6018
:101F5A000424E0700EA2039201D204C203D322C366
:101F6A0002005BE430040BE509300302F404A20129
:101F7A0092033002EA250820D2E5A2E79204500231
:101F8A00F404B4260050D8CCC0E0EDC0E0EEC0E0C6
:101F9A00EFC0E0EC12038DD0E0FFD0E0FED0E0FD10
:101FAA00D0E0FC200405120168800312027130039C
:061FBA000312030EC32216
:1009FE00E508248DF582E43402F583E005082290A3
:100A0E00028A30080390028DE475F00112073C0251
:100A1E0006052001E97F2ED2018018EF540F249095
:100A2E00D43440D4FF30050BEF24BFB41A0050036A
:100A3E002461FFE50960021509050CE50C7002053D
:100A4E000B30080E90028AE475F00112073CEF029B
:100A5E00066D0230857403D2088003E4C208F508DF
:100A6E0090028A120753E4F509F50BF50CE50960BF
:100A7E00077F20120A4180F5750AFFC202C201C229
:100A8E0003C204C206C207C209120A0DFF700D305E
:100A9E0008057F00120A52AF0CAE0B22B4255FC2BE
:100AAE00D5C205120A0DFF24D0B40A00501A75F0F3
:100ABE000A780930D50508B6FF0106C6A426F62029
:100ACE00D5047002D20480D924CFB41A00EF50049A
:100ADE00C2E5D205020D44D20280C6D20180C0D238
:100AEE000380BCD2D580BAD20680B47F20120A41D0
:100AFE002003077401B5090040F11209FEFF120A26
:100B0E0041020A7BD209D20780951209FEFB120917
:100B1E00FEFA1209FEF94A4B700679427A0E7BFFF5
:100B2E0020032EE509602A7E008E82758300120650
:100B3E001E60060EEE650A70F0C2D5EBC0E0EAC08C
:100B4E00E0E9C0E0EE120DA5D0E0F9D0E0FAD0E079
:100B5E00FB120605FF60AAEBC0E0EAC0E0E9C0E0C8
:100B6E00120A41D0E02401F9D0E03400FAD0E0FBC3
:100B7E00E50A0460DCD50AD98087D20380A2120D63
:100B8E008760F7E50A7001041203CDA90A600DE52E
:100B9E000A600914F50A120E2FEF60F3EA30E7022D
:100BAE00F404C3995079EAF4250A0430E701E40409
:100BBE00F50A800D120D8760C1EA050A250A120397
:100BCE00CDEA9002B9F030E701E4250A04D50A0413
:100BDE0020060114120DA5E4C0E0120E2F9002B9EA
:100BEE00E0601320E70714F0120A29802204F0D0E7
:100BFE00E014C0E07F00120A29E50A6007120A20FD
:100C0E00150A800B300603120A20D0E0020A7BD0B0
:100C1E00E00480C4120D87609EE50A041203CD9095
:100C2E0002B9EAF0E50A2006026001042404120D5E
:010C3E00A510
:100C3F0074FF04C0E0120E2F120A29E50A200602E3
:100C4F006003120A20D0E0B50AE87F45120A3390FC
:100C5F0002B9E07F2B30E7047F2DF404C0E0120AC5
:100C6F0041D0E075F00A84C0F0120A2AD0E0120ACF
:100C7F002A020A7B791080027908C207C20980080C
:100C8F00D2D5790A8004790AC2D5E50A047002F533
:100C9F000AE4FAFDFEFF1209FEFC7B082002131284
:100CAF0009FEFD7B1030010A1209FEFE1209FEFF3C
:100CBF007B20EC3382D592D55013C3E43001069FCD
:100CCF00FFE49EFEE42002039DFDE49CFCE4CBF8D0
:100CDF00C202EC700CCFCECDCCE824F8F870F380C4
:100CEF0017C3EF33FFEE33FEED33FDEC33FCEB3385
:100CFF00FB994002FB0FD8E9EB300205F8D0E0C4B6
:100D0F0048B202C0E00AEC4D4E4F78207B0070C213
:100D1F00EAB50A0040BCC0E0120DA7D0F0D0E02029
:100D2F000204C4C0E0C4B202C0F0120A2AD0F0D547
:100D3F00F0EB020A7B1207AB0B18530C83580AE92E
:100D4F004C0AE5420C874F0C8F440C8F490AFE4327
:100D5F000C95550BC2460C22450B8C470E62500A60
:100D6F00ED2D0AF12E0B142B0AF5230B12200E4B2F
:100D7F002A0AAD4800000B0CE50AB4FF03750A06FA
:100D8F001209FEFC1209FEFD1209FEFE1209FEFFFA
:100D9F009002B202040A790AA2D52004143006097F
:100DAF00B910020404B9080104A2D52007025001AA
:100DBF00042003689203B509005034C0E07F20304F
:100DCF0004197F30A20372077206500F120DFEC274
:100DDF0003C207C206C2097F30800F300603E9C085
:100DEF00E0120A41300603D0E0F9D0E0B509CC306B
:100DFF0006177F30B9100C120A417F583005077F54
:100E0F00788003B90803120A413003057F2D020AC7
:100E1F00417F202009F87F2B2007F322920380CFF8
:100E2F007F00B40700500B24B2F582E43402F5833F
:100E3F00E0FF22286E756C6C2900D2021209FE3079
:100E4F0002F8C202780930D50108F6020AAD2D501A
:100E5F004349581209FE2403B405004001E4900EE3
:100E6F005D93120A32743A120A32D20475090402DF
:020E7F000C83E2
:10002600E9D2E7C933E833F892D5EDD2E7CD33EC20
:0700360033FC5002B2D52299
:10003D00EC30E7100FBF000C0EBE00080DBD000424
:10004D000BEB6014A2D5EB13FCED92E7FD2274FFD0
:10005D00FCFDFEFF22E480F8A2D574FF13FC7D8029
:03006D00E480EF3D
:1000700002005BE86480F8E933E83360110460F063
:10008000ED33EC337009E8FCE9FDEAFEEBFF2204F6
:1000900060DED3EB9FEA9EE99DE8C2E78CF0C2F7F1
:1000A00095F0400CE8CCF8E9CDF9EACEFAEBCFFBBD
:1000B00012002685D0F05804700320D5B3E80470F0
:1000C000075002B2D502006592D5EC0460F7E4CC8B
:1000D000C0E0C398F8603B94186008400DD0E0FB86
:1000E00002003DE4FBFAC9FC8028E830E406E4C9DC
:1000F000FBE4CAFCE830E305E4C9CACBFCE85407DA
:100100006010F8C3E913F9EA13FAEB13FBEC13FCE4
:10011000D8F130F52FC3E49CFCEF9BFFEE9AFEED87
:1001200099FDD0E0FBEF4E4D4C701222DB03020034
:1001300062EC2CFCEF33FFEE33FEED33FDED30E7E8
:10014000EB02003DEF2BFFEE3AFEED39FDD0E0FB78
:1001500050130BBB0003020065ED13FDEE13FEEF21
:0801600013FFEC13FC02003D4B
:10016800EC4D6011E8497017ED33EC3304600DE491
:10017800FCFFFEFD22E933E8330470F802005B124D
:10018800002658046009E4CC24815006285009024E
:100198000065284003020062C0E0EB4A7044B98061
:1001A80006D0E0FB020051EF4E701CBD8008EBFF4B
:1001B800EAFEE9FD80EBE98DF0A4FEE5F0020251CC
:1001C800E9CDF9EAFEEBFFEF89F0A4FCE5F0CE8972
:1001D800F0A42EFFE435F0CD89F0A42DFEE435F02F
:1001E8008067EF4E7005BD80D780C3EF8BF0A4AC5D
:1001F800F0EE8BF0A42CFCE435F0F8EF8AF0A42C98
:10020800E5F038FCE433CB8DF0A42CFCE5F03BF8AA
:10021800EE8AF0A42CFCE5F038F8E433CF89F0A49A
:100228002CFCE5F038CF3400CE89F0A42FFFE5F0A0
:100238003EFEE433C98DF0A42EFEE5F039CD8AF0F8
:10024800A42FFFE5F03EFEE43DFD33D0E0FB500770
:100258000BBB000F020065EC2CFCEF33FFEE33FE06
:06026800ED33FD02003D34
:10026E00020065EC5D046005E85904700302005B52
:10027E00120026580460F6EC4860F2EC7004FDFEA5
:10028E00FF22C860DB2481C85009C3986002500663
:10029E000200629850CAF582E9294B4A7005AB827A
:1002AE0002005175F0007C1A7880C3EF9BEE9AED38
:1002BE0099400DC3EF9BFFEE9AFEED99FDE842F0DB
:1002CE00DC23ACF0D0E0FFD0E0FED0E0FDAB82202E
:1002DE00E7101BEB60BAEC2CFCEF33FFEE33FEEDB8
:1002EE0033FD02003DE803F830E705C0F075F0007D
:1002FE00EF2FFFEE33FEED33FD40B830E7C280AA9C
:10030E00ED33EC33600A047003BD8004ECB2E7FCFD
:01031E0022BC
:10031F0075F020800E75F010800575F0087D007E59
:10032F00007F003392D530D503120722EC334010F3
:10033F00EF33FFEE33FEED33FDEC33FCD5F0ED2262
:0E034F00E5F0247EA2D513CC92E7CDCEFF229E
:10035D003F8000004120000042C80000447A0000A8
:10036D00461C400047C35000497424004B1896802A
:10037D004CBEBC205A0E1BCA6753C21C749DC5AE21
:10038D00FB60065407601C23231203BBEB5438603B
:10039D00091203A71203B6120168ECF8EDF9EEFA93
:1003AD00EFCB22EB1203B680F1543803241C9003DB
:1003BD005DFE93FC0EEE93FD0EEE930ECE93FF229B
:1003CD00F920E73624F950037907E4F42402FBE51C
:1003DD0082158270021583DBF6E024FB501BE96069
:1003ED0014E4F0E582158270021583E004F0B40A7E
:0D03FD0008E4F0D9EE7401F00A22C2D52206
:10040A00ED33EC3392D5FA602AB4FF33EDC2E77BC1
:10041A00FF60067A04792FE4227A04793820D50419
:10042A007A047933224E614E002B494E46002D49FB
:10043A004E4600E47A08F0A3DAFC7B00740722C077
:10044A0083C082ECC0E0EDC0E0EEC0E0EFC0E0EABD
:10045A0075F010A4CAABF075F04DA42BFBE435F08F
:10046A00FCEA2410FAEB34C5FBEC34D9FCEDC2E704
:10047A00FF75F056A4F42411C5F0F434C58FF0A426
:10048A002AE5F03BE43CF020E71412038DD0E0FFAC
:10049A00D0E0FED0E0FDD0E0FC1202718014F4043A
:1004AA0012038DD0E0FFD0E0FED0E0FDD0E0FC12D8
:1004BA000168D082D083E0FAEDD2E7CD33EC332461
:1004CA0082FBE4C3CF33CFCE33CECD33CD33DBF390
:1004DA007B0775F00A846004F0A31B0AE5F0F0A319
:1004EA008FF0740AA4FFACF08EF0740AA42CFEAC50
:1004FA00F050010C8DF0740AA42CFDE435F0F0A341
:05050A00DBDE74072296
:030000000225C511
:0C25C500787FE4F6D8FD75812102260C19
:10050F00E709F608DFFA8046E709F208DFFA803ECE
:10051F0088828C83E709F0A3DFFA8032E309F608BB
:10052F00DFFA8078E309F208DFFA807088828C8323
:10053F00E309F0A3DFFA806489828A83E0A3F608D7
:10054F00DFFA805889828A83E0A3F208DFFA804CB1
:10055F0080D280FA80C680D4806980F28033801088
:10056F0080A680EA809A80A880DA80E280CA8033F1
:10057F0089828A83ECFAE493A3C8C582C8CCC58369
:10058F00CCF0A3C8C582C8CCC583CCDFE9DEE78039
:10059F000D89828A83E493A3F608DFF9ECFAA9F0B8
:1005AF00EDFB2289828A83ECFAE0A3C8C582C8CC0E
:1005BF00C583CCF0A3C8C582C8CCC583CCDFEADE27
:1005CF00E880DB89828A83E493A3F208DFF980CC89
:1005DF0088F0EF60010E4E60C388F0ED2402B40482
:1005EF000050B9F582EB2402B4040050AF23234529
:0605FF00822390055F73EA
:10060500BB010689828A83E0225002E722BBFE02F3
:09061500E32289828A83E4932226
:10061E00BB010CE58229F582E5833AF583E0225091
:10062E0006E92582F8E622BBFE06E92582F8E222DB
:0D063E00E58229F582E5833AF583E49322F5
:10064B00BB010989828A83F8E028F022500327F73F
:10065B0022BBFE05F8E328F3228A838982F8E49310
:02066B00282243
:10066D00BB010689828A83F0225002F722BBFE016C
:02067D00F32266
:10067F00F8BB010DE58229F582E5833AF583E8F0B1
:10068F00225006E92582C8F622BBFE05E92582C85D
:02069F00F22245
:1006A100BC000BBE0029EF8DF084FFADF022E4CC3D
:1006B100F875F008EF2FFFEE33FEEC33FCEE9DEC06
:1006C100984005FCEE9DFE0FD5F0E9E4CEFD22ED4C
:1006D100F8F5F0EE8420D21CFEADF075F008EF2F96
:1006E100FFED33FD4007985006D5F0F222C398FD87
:0506F1000FD5F0EA2224
:1006F600C5F0F8A3E028F0C5F0F8E582158270028F
:060706001583E038F0222B
:10070C00A3F8E0C5F025F0F0E582158270021583A0
:06071C00E0C838F0E822FD
:0E072200C3E49FFFE49EFEE49DFDE49CFC22E8
:0C073000ECF0A3EDF0A3EEF0A3EFF0223C
:10073C00F8E0FBA3A3E0F925F0F0E5821582700246
:07074C001583E0FA38F022EA
:09075300EBF0A3EAF0A3E9F022A7
:10075C00BB011A89828A83D0F0D0E0F8D0E0F9D0BE
:10076C00E0FAD0E0FBE8C0E0C0F00207535016E915
:10077C00F8D083D082D0E0F9D0E0FAD0E0FBC08290
:10078C00C0830209ECBBFE16E9F8D083D082D0E01E
:0F079C00F9D0E0FAD0E0FBC082C0830209F52259
:1007AB00D083D082F8E4937012740193700DA3A3DD
:1007BB0093F8740193F5828883E4737402936860F1
:0607CB00EFA3A3A380DFF1
:10308500EFB40A07740D123090740A309811A8999C
:10309500B8130CC2983098FDA899C298B811F630AB
:0730A50099FDC299F5992283
:1031F600EFC394094005EF940E4004EFB42003D3C7
:043206008001C3225E
:0C326700EE30E707C3E49FFFE49EFE2268
:1007D100E3F5F009E208B5F06D606B80F3E3F5F045
:1007E10009E608B5F060605E80F387F009E608B5B8
:1007F100F054605280F487F009E208B5F048604691
:1008010080F488828C8387F009E0A3B5F0386036E4
:1008110080F488828C8387F009E493A3B5F0276084
:100821002580F388828C83E3F5F009E0A3B5F01607
:10083100601480F388828C83E3F5F009E493A3B517
:10084100F004600280F20208FC808580E7808E80DF
:10085100D2803C8015806C807E809B80B5808B80AF
:10086100A1804F8070803A02090889828A83ECFA5C
:10087100E493F5F0A3C8C582C8CCC583CCE493A3A7
:10088100C8C582C8CCC583CCB5F070606E80E189E3
:10089100828A83E493F5F0A3E208B5F05E605C80A0
:1008A100F289828A83E0F5F0A3E608B5F04D604B4A
:1008B10080F389828A83E0F5F0A3E208B5F03C6019
:1008C1003A80F389828A83E493F5F0A3E608B5F0D0
:1008D1002A602880F2805389828A83ECFAE493F5B6
:1008E100F0A3C8C582C8CCC583CCE0A3C8C582C863
:1008F100CCC583CCB5F004600280E27FFFB5F00285
:100901000F2240027F012289828A83ECFAE0F5F00E
:10091100A3C8C582C8CCC583CCE0A3C8C582C8CC56
:10092100C583CCB5F0D560D380E389828A83ECFAA4
:10093100E0F5F0A3C8C582C8CCC583CCE493A3C8B5
:10094100C582C8CCC583CCB5F0B160AF80E288F078
:10095100ED2402B4040050A3F582EB2402B4040098
:0B0961005099232345822390084A731D
:102651009001F2EBF0A3EAF0A3E9F09001F5E0FBC1
:10266100A3E0FAA3E0F9120605FE9001F2E0FBA354
:10267100E0FAA3E0F9120605FF6E702AEF600E90F2
:1026810001F874FFF5F01206F645F070037F0022A1
:102691009001F3E475F0011206F69001F6E475F08D
:1026A100011206F680B59001F2E0FBA3E0FAA3E087
:1026B100F9120605FDD3EE6480F8ED6480984003BD
:1026C1007F01229001F5E0FBA3E0FAA3E0F91206F5
:0726D10005FFC3ED9FFF228E
:1015EB009001F2EBF0A3EAF0A3E9F09001FB1209F2
:1015FB00BB00000000E49001F9F0A3F09001F5E0CE
:10160B00FBA3E0FAA3E0F9EA494B60209001F2E07A
:10161B00FBA3E0FAA3E0F9EBC0E0EAC0E0E9C0E02D
:10162B00A3E0FBA3E0FAA3E0F912075C9001F2E060
:10163B00FBA3E475F00112070CA9F0FA1206059052
:10164B0001FFF0E0FFC394094006EFD3940D40DC9B
:10165B00EF642060D7EFB42D0C9001F9E0F0A3E01C
:10166B004403F0801D9001FFE0B42B0C9001F9E0D6
:10167B00F0A3E04401F0800A9001F374FFF5F0123F
:10168B0006F69001F8E06004641070519001F2E0EE
:10169B00FBA3E0FAA3E0F91206056430600B90019E
:1016AB00F8E07039740AF0803490000112061EFFC6
:1016BB0064786004EFB4581C9001F9E0F0A3E044A7
:1016CB0001F09001F87410F09001F3E475F0021240
:1016DB0006F680099001F8E070037408F09001F2AF
:1016EB00E0FBA3E475F00112070CA9F0FA12060552
:1016FB009001FFF0E0FFC39461400AEFD3947A505E
:10170B0004EF54DFF09001FFE024D0F0E0FFC3942E
:10171B000A400CEF9411407B9001FFE024F9F0900C
:10172B0001F8E0FF9001FFE0C39F50679001F9E0E3
:10173B00F0A3E04401F07E00E4FCFDA3E0F8A3E09D
:10174B00F9A3E0FAA3E0FB12096CC8ECC8C9EDC918
:10175B00CAEECACBEFCB9001FFE0FFE4FCFDFEEB42
:10176B002FFFEE3AFEED39FDEC38FC9001FB120732
:10177B00309001FBE0FCA3E0FDA3E0FEA3E0FFEC57
:10178B003340030216E89001F9E0F0A3E04404F0C3
:10179B000216E89001FAE020E006E4FFFEFDFC22D1
:1017AB009001F5E0FBA3E0FAA3E0F9EA494B6026D0
:1017BB009001F2E0FBA3E0FAA3E024FFF9EA34FF87
:1017CB00FAEBC0E0EAC0E0E9C0E0A3E0FBA3E0FA7B
:1017DB00A3E0F912075C9001F9A3E030E21230E1CB
:1017EB0007E4FFFEFD7C802274FFFFFEFD7C7F2261
:1017FB009001FAE030E10FA3E0FCA3E0FDA3E0FED3
:10180B00A3E0FF0207229001FBE0FCA3E0FDA3E0B5
:05181B00FEA3E0FF2226
:1025D100023003E493A3F8E493A34003F68001F2ED
:1025E10008DFF48029E493A3F85407240CC8C3330B
:1025F100C4540F4420C8834004F456800146F6DFDA
:10260100E4800B0102040810204080901A35E47E1A
:10261100019360BCA3FF543F30E509541FFEE493CE
:10262100A360010ECF54C025E060A840B8E493A395
:10263100FAE493A3F8E493A3C8C582C8CAC583CAC0
:10264100F0A3C8C582C8CAC583CADFE9DEE780BE78
:011BE70000FD
:10096C00E88FF0A4CC8BF0A42CFCE98EF0A42CFC2A
:10097C008AF0EDA42CFCEA8EF0A4CDA8F08BF0A4A8
:10098C002DCC3825F0FDE98FF0A42CCD35F0FCEB07
:10099C008EF0A4FEA9F0EB8FF0A4CFC5F02ECD39CC
:0F09AC00FEE43CFCEAA42DCE35F0FDE43CFC2239
:1009BB00A8828583F0D083D0821209D21209D21279
:1009CB0009D21209D2E473E493A3C583C5F0C5839E
:1009DB00C8C582C8F0A3C583C5F0C583C8C582C886
:0109EB0022E9
:0909EC00EBF608EAF608E9F62230
:0909F500EBF208EAF208E9F22233
:00000001FF
